{
  "contractName": "NAMarket",
  "abi": [
    {
      "anonymous": false,
      "inputs": [
        {
          "indexed": false,
          "internalType": "uint256",
          "name": "auctionId",
          "type": "uint256"
        }
      ],
      "name": "AuctionCanceled",
      "type": "event"
    },
    {
      "anonymous": false,
      "inputs": [
        {
          "indexed": false,
          "internalType": "uint256",
          "name": "auctionId",
          "type": "uint256"
        },
        {
          "indexed": false,
          "internalType": "address",
          "name": "contractAddress",
          "type": "address"
        },
        {
          "indexed": false,
          "internalType": "uint256",
          "name": "tokenId",
          "type": "uint256"
        },
        {
          "indexed": false,
          "internalType": "uint256",
          "name": "startingPrice",
          "type": "uint256"
        },
        {
          "indexed": false,
          "internalType": "address",
          "name": "seller",
          "type": "address"
        },
        {
          "indexed": false,
          "internalType": "uint256",
          "name": "expiryDate",
          "type": "uint256"
        }
      ],
      "name": "AuctionCreated",
      "type": "event"
    },
    {
      "anonymous": false,
      "inputs": [
        {
          "indexed": false,
          "internalType": "uint256",
          "name": "auctionId",
          "type": "uint256"
        },
        {
          "indexed": false,
          "internalType": "bool",
          "name": "sold",
          "type": "bool"
        }
      ],
      "name": "AuctionSettled",
      "type": "event"
    },
    {
      "anonymous": false,
      "inputs": [
        {
          "indexed": false,
          "internalType": "uint256",
          "name": "auctionId",
          "type": "uint256"
        },
        {
          "indexed": false,
          "internalType": "uint256",
          "name": "bidPrice",
          "type": "uint256"
        }
      ],
      "name": "BidFailed",
      "type": "event"
    },
    {
      "anonymous": false,
      "inputs": [
        {
          "indexed": false,
          "internalType": "uint256",
          "name": "auctionId",
          "type": "uint256"
        },
        {
          "indexed": false,
          "internalType": "uint256",
          "name": "bidPrice",
          "type": "uint256"
        }
      ],
      "name": "BidPlaced",
      "type": "event"
    },
    {
      "anonymous": false,
      "inputs": [
        {
          "indexed": false,
          "internalType": "address",
          "name": "operator",
          "type": "address"
        },
        {
          "indexed": false,
          "internalType": "address",
          "name": "from",
          "type": "address"
        },
        {
          "indexed": false,
          "internalType": "uint256[]",
          "name": "ids",
          "type": "uint256[]"
        },
        {
          "indexed": false,
          "internalType": "uint256[]",
          "name": "values",
          "type": "uint256[]"
        },
        {
          "indexed": false,
          "internalType": "bytes",
          "name": "data",
          "type": "bytes"
        }
      ],
      "name": "ERC1155BatchReceived",
      "type": "event"
    },
    {
      "anonymous": false,
      "inputs": [
        {
          "indexed": false,
          "internalType": "address",
          "name": "operator",
          "type": "address"
        },
        {
          "indexed": false,
          "internalType": "address",
          "name": "from",
          "type": "address"
        },
        {
          "indexed": false,
          "internalType": "uint256",
          "name": "id",
          "type": "uint256"
        },
        {
          "indexed": false,
          "internalType": "uint256",
          "name": "value",
          "type": "uint256"
        },
        {
          "indexed": false,
          "internalType": "bytes",
          "name": "data",
          "type": "bytes"
        }
      ],
      "name": "ERC1155Received",
      "type": "event"
    },
    {
      "anonymous": false,
      "inputs": [
        {
          "indexed": false,
          "internalType": "address",
          "name": "nftContract",
          "type": "address"
        }
      ],
      "name": "NFTApproved",
      "type": "event"
    },
    {
      "anonymous": false,
      "inputs": [
        {
          "indexed": true,
          "internalType": "address",
          "name": "previousOwner",
          "type": "address"
        },
        {
          "indexed": true,
          "internalType": "address",
          "name": "newOwner",
          "type": "address"
        }
      ],
      "name": "OwnershipTransferred",
      "type": "event"
    },
    {
      "anonymous": false,
      "inputs": [
        {
          "indexed": false,
          "internalType": "address",
          "name": "creditAddress",
          "type": "address"
        },
        {
          "indexed": false,
          "internalType": "uint256",
          "name": "amount",
          "type": "uint256"
        }
      ],
      "name": "UserCredited",
      "type": "event"
    },
    {
      "anonymous": false,
      "inputs": [
        {
          "indexed": false,
          "internalType": "uint256",
          "name": "auctionId",
          "type": "uint256"
        },
        {
          "indexed": false,
          "internalType": "uint256",
          "name": "cPrice",
          "type": "uint256"
        },
        {
          "indexed": false,
          "internalType": "uint256",
          "name": "bidPrice",
          "type": "uint256"
        }
      ],
      "name": "priceBid",
      "type": "event"
    },
    {
      "inputs": [],
      "name": "adminAddress",
      "outputs": [
        {
          "internalType": "address",
          "name": "",
          "type": "address"
        }
      ],
      "stateMutability": "view",
      "type": "function"
    },
    {
      "inputs": [
        {
          "internalType": "uint256",
          "name": "",
          "type": "uint256"
        }
      ],
      "name": "auctions",
      "outputs": [
        {
          "internalType": "address",
          "name": "contractAddress",
          "type": "address"
        },
        {
          "internalType": "uint256",
          "name": "tokenId",
          "type": "uint256"
        },
        {
          "internalType": "uint256",
          "name": "currentPrice",
          "type": "uint256"
        },
        {
          "internalType": "uint256",
          "name": "buyNowPrice",
          "type": "uint256"
        },
        {
          "internalType": "address",
          "name": "seller",
          "type": "address"
        },
        {
          "internalType": "address",
          "name": "highestBidder",
          "type": "address"
        },
        {
          "internalType": "string",
          "name": "auctionTitle",
          "type": "string"
        },
        {
          "internalType": "uint256",
          "name": "expiryDate",
          "type": "uint256"
        },
        {
          "internalType": "uint256",
          "name": "auctionId",
          "type": "uint256"
        },
        {
          "components": [
            {
              "internalType": "uint256",
              "name": "category",
              "type": "uint256"
            },
            {
              "internalType": "enum NAMarket.AuctionStatus",
              "name": "status",
              "type": "uint8"
            },
            {
              "internalType": "enum NAMarket.TokenType",
              "name": "tokenType",
              "type": "uint8"
            },
            {
              "internalType": "uint256",
              "name": "quantity",
              "type": "uint256"
            }
          ],
          "internalType": "struct NAMarket.AuctionType",
          "name": "auctionTypes",
          "type": "tuple"
        }
      ],
      "stateMutability": "view",
      "type": "function"
    },
    {
      "inputs": [],
      "name": "feeAddress",
      "outputs": [
        {
          "internalType": "address",
          "name": "",
          "type": "address"
        }
      ],
      "stateMutability": "view",
      "type": "function"
    },
    {
      "inputs": [],
      "name": "feePercentage",
      "outputs": [
        {
          "internalType": "uint256",
          "name": "",
          "type": "uint256"
        }
      ],
      "stateMutability": "view",
      "type": "function"
    },
    {
      "inputs": [],
      "name": "marketStatus",
      "outputs": [
        {
          "internalType": "bool",
          "name": "",
          "type": "bool"
        }
      ],
      "stateMutability": "view",
      "type": "function"
    },
    {
      "inputs": [],
      "name": "minAuctionLiveness",
      "outputs": [
        {
          "internalType": "uint256",
          "name": "",
          "type": "uint256"
        }
      ],
      "stateMutability": "view",
      "type": "function"
    },
    {
      "inputs": [],
      "name": "minBidSize",
      "outputs": [
        {
          "internalType": "uint256",
          "name": "",
          "type": "uint256"
        }
      ],
      "stateMutability": "view",
      "type": "function"
    },
    {
      "inputs": [
        {
          "internalType": "address",
          "name": "operator",
          "type": "address"
        },
        {
          "internalType": "address",
          "name": "from",
          "type": "address"
        },
        {
          "internalType": "uint256[]",
          "name": "ids",
          "type": "uint256[]"
        },
        {
          "internalType": "uint256[]",
          "name": "values",
          "type": "uint256[]"
        },
        {
          "internalType": "bytes",
          "name": "data",
          "type": "bytes"
        }
      ],
      "name": "onERC1155BatchReceived",
      "outputs": [
        {
          "internalType": "bytes4",
          "name": "",
          "type": "bytes4"
        }
      ],
      "stateMutability": "nonpayable",
      "type": "function"
    },
    {
      "inputs": [
        {
          "internalType": "address",
          "name": "operator",
          "type": "address"
        },
        {
          "internalType": "address",
          "name": "from",
          "type": "address"
        },
        {
          "internalType": "uint256",
          "name": "id",
          "type": "uint256"
        },
        {
          "internalType": "uint256",
          "name": "value",
          "type": "uint256"
        },
        {
          "internalType": "bytes",
          "name": "data",
          "type": "bytes"
        }
      ],
      "name": "onERC1155Received",
      "outputs": [
        {
          "internalType": "bytes4",
          "name": "",
          "type": "bytes4"
        }
      ],
      "stateMutability": "nonpayable",
      "type": "function"
    },
    {
      "inputs": [],
      "name": "owner",
      "outputs": [
        {
          "internalType": "address",
          "name": "",
          "type": "address"
        }
      ],
      "stateMutability": "view",
      "type": "function"
    },
    {
      "inputs": [],
      "name": "renounceOwnership",
      "outputs": [],
      "stateMutability": "nonpayable",
      "type": "function"
    },
    {
      "inputs": [
        {
          "internalType": "bytes4",
          "name": "interfaceId",
          "type": "bytes4"
        }
      ],
      "name": "supportsInterface",
      "outputs": [
        {
          "internalType": "bool",
          "name": "",
          "type": "bool"
        }
      ],
      "stateMutability": "view",
      "type": "function"
    },
    {
      "inputs": [],
      "name": "totalAuctionCount",
      "outputs": [
        {
          "internalType": "uint256",
          "name": "_value",
          "type": "uint256"
        }
      ],
      "stateMutability": "view",
      "type": "function"
    },
    {
      "inputs": [],
      "name": "totalMarketVolume",
      "outputs": [
        {
          "internalType": "uint256",
          "name": "",
          "type": "uint256"
        }
      ],
      "stateMutability": "view",
      "type": "function"
    },
    {
      "inputs": [],
      "name": "totalSales",
      "outputs": [
        {
          "internalType": "uint256",
          "name": "",
          "type": "uint256"
        }
      ],
      "stateMutability": "view",
      "type": "function"
    },
    {
      "inputs": [
        {
          "internalType": "address",
          "name": "newOwner",
          "type": "address"
        }
      ],
      "name": "transferOwnership",
      "outputs": [],
      "stateMutability": "nonpayable",
      "type": "function"
    },
    {
      "inputs": [
        {
          "internalType": "address",
          "name": "",
          "type": "address"
        }
      ],
      "name": "userPriceList",
      "outputs": [
        {
          "internalType": "uint256",
          "name": "",
          "type": "uint256"
        }
      ],
      "stateMutability": "view",
      "type": "function"
    },
    {
      "inputs": [
        {
          "internalType": "bool",
          "name": "_marketStatus",
          "type": "bool"
        }
      ],
      "name": "setMarkStatus",
      "outputs": [],
      "stateMutability": "nonpayable",
      "type": "function"
    },
    {
      "inputs": [
        {
          "internalType": "address",
          "name": "_feeAddress",
          "type": "address"
        }
      ],
      "name": "setFeeAddress",
      "outputs": [],
      "stateMutability": "nonpayable",
      "type": "function"
    },
    {
      "inputs": [
        {
          "internalType": "address",
          "name": "_adminAddress",
          "type": "address"
        }
      ],
      "name": "setAdmin",
      "outputs": [],
      "stateMutability": "nonpayable",
      "type": "function"
    },
    {
      "inputs": [
        {
          "internalType": "uint256",
          "name": "_minBidSize",
          "type": "uint256"
        }
      ],
      "name": "setMinBidSize",
      "outputs": [],
      "stateMutability": "nonpayable",
      "type": "function"
    },
    {
      "inputs": [
        {
          "internalType": "uint256",
          "name": "_minAuctionLiveness",
          "type": "uint256"
        }
      ],
      "name": "setMinAuctionLiveness",
      "outputs": [],
      "stateMutability": "nonpayable",
      "type": "function"
    },
    {
      "inputs": [
        {
          "internalType": "uint256",
          "name": "_feePercentage",
          "type": "uint256"
        }
      ],
      "name": "setFeePercentage",
      "outputs": [],
      "stateMutability": "nonpayable",
      "type": "function"
    },
    {
      "inputs": [
        {
          "internalType": "address",
          "name": "_contractAddress",
          "type": "address"
        },
        {
          "internalType": "uint256",
          "name": "_tokenId",
          "type": "uint256"
        },
        {
          "internalType": "uint256",
          "name": "_startingPrice",
          "type": "uint256"
        },
        {
          "internalType": "string",
          "name": "auctionTitle",
          "type": "string"
        },
        {
          "internalType": "uint256",
          "name": "_buyNowPrice",
          "type": "uint256"
        },
        {
          "internalType": "uint256",
          "name": "expiryDate",
          "type": "uint256"
        },
        {
          "internalType": "uint256",
          "name": "_category",
          "type": "uint256"
        },
        {
          "internalType": "enum NAMarket.TokenType",
          "name": "_tokenType",
          "type": "uint8"
        },
        {
          "internalType": "uint256",
          "name": "_quantity",
          "type": "uint256"
        }
      ],
      "name": "createAuction",
      "outputs": [
        {
          "internalType": "uint256",
          "name": "auctionId",
          "type": "uint256"
        }
      ],
      "stateMutability": "nonpayable",
      "type": "function"
    },
    {
      "inputs": [
        {
          "internalType": "uint256",
          "name": "auctionId",
          "type": "uint256"
        }
      ],
      "name": "cancelAuction",
      "outputs": [],
      "stateMutability": "nonpayable",
      "type": "function"
    },
    {
      "inputs": [
        {
          "internalType": "uint256",
          "name": "auctionId",
          "type": "uint256"
        }
      ],
      "name": "settleAuction",
      "outputs": [],
      "stateMutability": "nonpayable",
      "type": "function"
    },
    {
      "inputs": [],
      "name": "withdrawCredit",
      "outputs": [],
      "stateMutability": "nonpayable",
      "type": "function"
    },
    {
      "inputs": [
        {
          "internalType": "uint256",
          "name": "auctionId",
          "type": "uint256"
        },
        {
          "internalType": "uint256",
          "name": "bidPrice",
          "type": "uint256"
        }
      ],
      "name": "placeBid",
      "outputs": [],
      "stateMutability": "payable",
      "type": "function"
    },
    {
      "inputs": [
        {
          "internalType": "uint256",
          "name": "category",
          "type": "uint256"
        },
        {
          "internalType": "enum NAMarket.Sort",
          "name": "sort",
          "type": "uint8"
        },
        {
          "internalType": "string",
          "name": "keyword",
          "type": "string"
        },
        {
          "internalType": "uint256",
          "name": "offset",
          "type": "uint256"
        },
        {
          "internalType": "uint256",
          "name": "limit",
          "type": "uint256"
        }
      ],
      "name": "getOpenAuctions",
      "outputs": [
        {
          "components": [
            {
              "internalType": "address",
              "name": "contractAddress",
              "type": "address"
            },
            {
              "internalType": "uint256",
              "name": "tokenId",
              "type": "uint256"
            },
            {
              "internalType": "uint256",
              "name": "currentPrice",
              "type": "uint256"
            },
            {
              "internalType": "uint256",
              "name": "buyNowPrice",
              "type": "uint256"
            },
            {
              "internalType": "address",
              "name": "seller",
              "type": "address"
            },
            {
              "internalType": "address",
              "name": "highestBidder",
              "type": "address"
            },
            {
              "internalType": "string",
              "name": "auctionTitle",
              "type": "string"
            },
            {
              "internalType": "uint256",
              "name": "expiryDate",
              "type": "uint256"
            },
            {
              "internalType": "uint256",
              "name": "auctionId",
              "type": "uint256"
            },
            {
              "components": [
                {
                  "internalType": "uint256",
                  "name": "category",
                  "type": "uint256"
                },
                {
                  "internalType": "enum NAMarket.AuctionStatus",
                  "name": "status",
                  "type": "uint8"
                },
                {
                  "internalType": "enum NAMarket.TokenType",
                  "name": "tokenType",
                  "type": "uint8"
                },
                {
                  "internalType": "uint256",
                  "name": "quantity",
                  "type": "uint256"
                }
              ],
              "internalType": "struct NAMarket.AuctionType",
              "name": "auctionTypes",
              "type": "tuple"
            }
          ],
          "internalType": "struct NAMarket.Auction[]",
          "name": "resultAuctions",
          "type": "tuple[]"
        },
        {
          "internalType": "uint256",
          "name": "nextOffset",
          "type": "uint256"
        },
        {
          "internalType": "uint256",
          "name": "totalCount",
          "type": "uint256"
        }
      ],
      "stateMutability": "view",
      "type": "function"
    },
    {
      "inputs": [
        {
          "internalType": "uint256",
          "name": "auctionId",
          "type": "uint256"
        }
      ],
      "name": "getBids",
      "outputs": [
        {
          "components": [
            {
              "internalType": "uint256",
              "name": "bidId",
              "type": "uint256"
            },
            {
              "internalType": "address",
              "name": "bidder",
              "type": "address"
            },
            {
              "internalType": "uint256",
              "name": "price",
              "type": "uint256"
            },
            {
              "internalType": "uint256",
              "name": "timestamp",
              "type": "uint256"
            }
          ],
          "internalType": "struct NAMarket.Bid[]",
          "name": "",
          "type": "tuple[]"
        }
      ],
      "stateMutability": "view",
      "type": "function"
    },
    {
      "inputs": [
        {
          "internalType": "address",
          "name": "seller",
          "type": "address"
        }
      ],
      "name": "getUserAuctions",
      "outputs": [
        {
          "components": [
            {
              "internalType": "address",
              "name": "contractAddress",
              "type": "address"
            },
            {
              "internalType": "uint256",
              "name": "tokenId",
              "type": "uint256"
            },
            {
              "internalType": "uint256",
              "name": "currentPrice",
              "type": "uint256"
            },
            {
              "internalType": "uint256",
              "name": "buyNowPrice",
              "type": "uint256"
            },
            {
              "internalType": "address",
              "name": "seller",
              "type": "address"
            },
            {
              "internalType": "address",
              "name": "highestBidder",
              "type": "address"
            },
            {
              "internalType": "string",
              "name": "auctionTitle",
              "type": "string"
            },
            {
              "internalType": "uint256",
              "name": "expiryDate",
              "type": "uint256"
            },
            {
              "internalType": "uint256",
              "name": "auctionId",
              "type": "uint256"
            },
            {
              "components": [
                {
                  "internalType": "uint256",
                  "name": "category",
                  "type": "uint256"
                },
                {
                  "internalType": "enum NAMarket.AuctionStatus",
                  "name": "status",
                  "type": "uint8"
                },
                {
                  "internalType": "enum NAMarket.TokenType",
                  "name": "tokenType",
                  "type": "uint8"
                },
                {
                  "internalType": "uint256",
                  "name": "quantity",
                  "type": "uint256"
                }
              ],
              "internalType": "struct NAMarket.AuctionType",
              "name": "auctionTypes",
              "type": "tuple"
            }
          ],
          "internalType": "struct NAMarket.Auction[]",
          "name": "",
          "type": "tuple[]"
        }
      ],
      "stateMutability": "view",
      "type": "function"
    },
    {
      "inputs": [
        {
          "internalType": "uint256",
          "name": "timestamp",
          "type": "uint256"
        }
      ],
      "name": "getSellerSalesList",
      "outputs": [
        {
          "components": [
            {
              "internalType": "address",
              "name": "seller",
              "type": "address"
            },
            {
              "internalType": "uint256",
              "name": "price",
              "type": "uint256"
            },
            {
              "internalType": "uint256",
              "name": "timestamp",
              "type": "uint256"
            }
          ],
          "internalType": "struct NAMarket.SellerSale[]",
          "name": "",
          "type": "tuple[]"
        }
      ],
      "stateMutability": "view",
      "type": "function"
    }
  ],
  "bytecode": "0x6080604052600160035561025860045560fa6006556001600960006101000a81548160ff0219169083151502179055503480156200003c57600080fd5b506200005d620000516200006a60201b60201c565b6200007260201b60201c565b6001808190555062000136565b600033905090565b60008060009054906101000a900473ffffffffffffffffffffffffffffffffffffffff169050816000806101000a81548173ffffffffffffffffffffffffffffffffffffffff021916908373ffffffffffffffffffffffffffffffffffffffff1602179055508173ffffffffffffffffffffffffffffffffffffffff168173ffffffffffffffffffffffffffffffffffffffff167f8be0079c531659141344cd1fd0a4f28419497f9722a3daafe3b4186f6b6457e060405160405180910390a35050565b61707180620001466000396000f3fe6080604052600436106101e35760003560e01c806377ba6dc711610102578063d4f18e1911610095578063f2fde38b11610064578063f2fde38b146106f0578063fc6f946814610719578063fcfb010314610744578063ff3ad0b414610781576101e3565b8063d4f18e1914610620578063e0e081d71461064b578063e147f26b14610676578063f23a6e61146106b3576101e3565b8063a001ecdd116100d1578063a001ecdd14610578578063ae06c1b7146105a3578063bc197c81146105cc578063c36f387414610609576101e3565b806377ba6dc7146104d05780638705fcd4146104fb5780638da5cb5b1461052457806396b5a7551461054f576101e3565b80634b99a3971161017a578063648bf19111610149578063648bf191146104285780636605ff6614610465578063704b6c0214610490578063715018a6146104b9576101e3565b80634b99a3971461035e578063571a26a01461039d57806357c90de5146103e35780635d42604d146103ff576101e3565b80632e993611116101b65780632e993611146102b657806333f9a1ed146102df5780634127535814610308578063459d5bc714610333576101e3565b806301ffc9a7146101e857806306893ed614610225578063131d9a271461024e5780631825df211461028b575b600080fd5b3480156101f457600080fd5b5061020f600480360381019061020a91906155b5565b6107be565b60405161021c91906166a8565b60405180910390f35b34801561023157600080fd5b5061024c600480360381019061024791906155de565b610828565b005b34801561025a57600080fd5b50610275600480360381019061027091906155de565b6108c2565b6040516102829190616664565b60405180910390f35b34801561029757600080fd5b506102a06109a8565b6040516102ad91906169be565b60405180910390f35b3480156102c257600080fd5b506102dd60048036038101906102d891906155de565b6109b4565b005b3480156102eb57600080fd5b50610306600480360381019061030191906155de565b610e6a565b005b34801561031457600080fd5b5061031d610f04565b60405161032a91906163c4565b60405180910390f35b34801561033f57600080fd5b50610348610f2a565b60405161035591906169be565b60405180910390f35b34801561036a57600080fd5b5061038560048036038101906103809190615607565b610f30565b60405161039493929190616626565b60405180910390f35b3480156103a957600080fd5b506103c460048036038101906103bf91906155de565b611870565b6040516103da9a99989796959493929190616561565b60405180910390f35b6103fd60048036038101906103f89190615696565b611ad8565b005b34801561040b57600080fd5b506104266004803603810190610421919061558c565b61204d565b005b34801561043457600080fd5b5061044f600480360381019061044a91906155de565b6120e6565b60405161045c9190616686565b60405180910390f35b34801561047157600080fd5b5061047a61255c565b60405161048791906169be565b60405180910390f35b34801561049c57600080fd5b506104b760048036038101906104b29190615327565b612562565b005b3480156104c557600080fd5b506104ce612622565b005b3480156104dc57600080fd5b506104e56126aa565b6040516104f291906169be565b60405180910390f35b34801561050757600080fd5b50610522600480360381019061051d9190615327565b6126b0565b005b34801561053057600080fd5b506105396127e0565b60405161054691906163c4565b60405180910390f35b34801561055b57600080fd5b50610576600480360381019061057191906155de565b612809565b005b34801561058457600080fd5b5061058d612b3d565b60405161059a91906169be565b60405180910390f35b3480156105af57600080fd5b506105ca60048036038101906105c591906155de565b612b43565b005b3480156105d857600080fd5b506105f360048036038101906105ee9190615350565b612c22565b60405161060091906166c3565b60405180910390f35b34801561061557600080fd5b5061061e612c98565b005b34801561062c57600080fd5b50610635612e33565b60405161064291906169be565b60405180910390f35b34801561065757600080fd5b50610660612e39565b60405161066d91906166a8565b60405180910390f35b34801561068257600080fd5b5061069d600480360381019061069891906154ae565b612e4c565b6040516106aa91906169be565b60405180910390f35b3480156106bf57600080fd5b506106da60048036038101906106d5919061541c565b61340f565b6040516106e791906166c3565b60405180910390f35b3480156106fc57600080fd5b5061071760048036038101906107129190615327565b61347f565b005b34801561072557600080fd5b5061072e613577565b60405161073b91906163c4565b60405180910390f35b34801561075057600080fd5b5061076b60048036038101906107669190615327565b61359d565b60405161077891906169be565b60405180910390f35b34801561078d57600080fd5b506107a860048036038101906107a39190615327565b6135b5565b6040516107b59190616604565b60405180910390f35b60007f01ffc9a7000000000000000000000000000000000000000000000000000000007bffffffffffffffffffffffffffffffffffffffffffffffffffffffff1916827bffffffffffffffffffffffffffffffffffffffffffffffffffffffff1916149050919050565b600260009054906101000a900473ffffffffffffffffffffffffffffffffffffffff1673ffffffffffffffffffffffffffffffffffffffff163373ffffffffffffffffffffffffffffffffffffffff16146108b8576040517f08c379a00000000000000000000000000000000000000000000000000000000081526004016108af9061691e565b60405180910390fd5b8060048190555050565b6060600f6000838152602001908152602001600020805480602002602001604051908101604052809291908181526020016000905b8282101561099d5783829060005260206000209060040201604051806080016040529081600082015481526020016001820160009054906101000a900473ffffffffffffffffffffffffffffffffffffffff1673ffffffffffffffffffffffffffffffffffffffff1673ffffffffffffffffffffffffffffffffffffffff16815260200160028201548152602001600382015481525050815260200190600101906108f7565b505050509050919050565b600b8060000154905081565b806000600e600083815260200190815260200160002060090160010160009054906101000a900460ff16905060036004811115610a1a577f4e487b7100000000000000000000000000000000000000000000000000000000600052602160045260246000fd5b816004811115610a53577f4e487b7100000000000000000000000000000000000000000000000000000000600052602160045260246000fd5b141580610ad05750600480811115610a94577f4e487b7100000000000000000000000000000000000000000000000000000000600052602160045260246000fd5b816004811115610acd577f4e487b7100000000000000000000000000000000000000000000000000000000600052602160045260246000fd5b14155b610b0f576040517f08c379a0000000000000000000000000000000000000000000000000000000008152600401610b069061695e565b60405180910390fd5b60016004811115610b49577f4e487b7100000000000000000000000000000000000000000000000000000000600052602160045260246000fd5b816004811115610b82577f4e487b7100000000000000000000000000000000000000000000000000000000600052602160045260246000fd5b1415610be15742600e60008481526020019081526020016000206007015410610be0576040517f08c379a0000000000000000000000000000000000000000000000000000000008152600401610bd7906168be565b60405180910390fd5b5b60026001541415610c27576040517f08c379a0000000000000000000000000000000000000000000000000000000008152600401610c1e9061699e565b60405180910390fd5b60026001819055506000600e6000858152602001908152602001600020905060038160090160010160006101000a81548160ff02191690836004811115610c97577f4e487b7100000000000000000000000000000000000000000000000000000000600052602160045260246000fd5b0217905550610ca6600c613ae7565b60008073ffffffffffffffffffffffffffffffffffffffff168260050160009054906101000a900473ffffffffffffffffffffffffffffffffffffffff1673ffffffffffffffffffffffffffffffffffffffff16141590508015610df357610d3385308460050160009054906101000a900473ffffffffffffffffffffffffffffffffffffffff16613afd565b610d658260040160009054906101000a900473ffffffffffffffffffffffffffffffffffffffff168360020154613f07565b610d9d600560009054906101000a900473ffffffffffffffffffffffffffffffffffffffff16610d988460020154613fd9565b613f07565b610dcf8260040160009054906101000a900473ffffffffffffffffffffffffffffffffffffffff16836002015461400b565b610de882600201546008546142ae90919063ffffffff16565b600881905550610e23565b610e2285308460040160009054906101000a900473ffffffffffffffffffffffffffffffffffffffff16613afd565b5b7f870fbca50119b352ab78cca5071591789a0b4bb6297f1b26c04fafe987041ab68582604051610e54929190616a3a565b60405180910390a1505060018081905550505050565b600260009054906101000a900473ffffffffffffffffffffffffffffffffffffffff1673ffffffffffffffffffffffffffffffffffffffff163373ffffffffffffffffffffffffffffffffffffffff1614610efa576040517f08c379a0000000000000000000000000000000000000000000000000000000008152600401610ef19061691e565b60405180910390fd5b8060038190555050565b600560009054906101000a900473ffffffffffffffffffffffffffffffffffffffff1681565b60075481565b60606000806000610f41600c6142c4565b610f4b600b6142c4565b610f559190616cec565b905060008167ffffffffffffffff811115610f99577f4e487b7100000000000000000000000000000000000000000000000000000000600052604160045260246000fd5b604051908082528060200260200182016040528015610fd257816020015b610fbf614fa0565b815260200190600190039081610fb75790505b5090506000808990506000600190505b8481116114075760016004811115611023577f4e487b7100000000000000000000000000000000000000000000000000000000600052602160045260246000fd5b600e600083815260200190815260200160002060090160010160009054906101000a900460ff166004811115611082577f4e487b7100000000000000000000000000000000000000000000000000000000600052602160045260246000fd5b14156113f457600e6000828152602001908152602001600020604051806101400160405290816000820160009054906101000a900473ffffffffffffffffffffffffffffffffffffffff1673ffffffffffffffffffffffffffffffffffffffff1673ffffffffffffffffffffffffffffffffffffffff1681526020016001820154815260200160028201548152602001600382015481526020016004820160009054906101000a900473ffffffffffffffffffffffffffffffffffffffff1673ffffffffffffffffffffffffffffffffffffffff1673ffffffffffffffffffffffffffffffffffffffff1681526020016005820160009054906101000a900473ffffffffffffffffffffffffffffffffffffffff1673ffffffffffffffffffffffffffffffffffffffff1673ffffffffffffffffffffffffffffffffffffffff1681526020016006820180546111d790616e20565b80601f016020809104026020016040519081016040528092919081815260200182805461120390616e20565b80156112505780601f1061122557610100808354040283529160200191611250565b820191906000526020600020905b81548152906001019060200180831161123357829003601f168201915b50505050508152602001600782015481526020016008820154815260200160098201604051806080016040529081600082015481526020016001820160009054906101000a900460ff1660048111156112d2577f4e487b7100000000000000000000000000000000000000000000000000000000600052602160045260246000fd5b600481111561130a577f4e487b7100000000000000000000000000000000000000000000000000000000600052602160045260246000fd5b81526020016001820160019054906101000a900460ff166002811115611359577f4e487b7100000000000000000000000000000000000000000000000000000000600052602160045260246000fd5b6002811115611391577f4e487b7100000000000000000000000000000000000000000000000000000000600052602160045260246000fd5b815260200160028201548152505081525050846001836113b19190616cec565b815181106113e8577f4e487b7100000000000000000000000000000000000000000000000000000000600052603260045260246000fd5b60200260200101819052505b80806113ff90616e52565b915050610fe2565b506000815111156114245761141d838d8c6142d2565b925061143a565b60008c1461143957611436838d6144a8565b92505b5b60005b848110156114df57600073ffffffffffffffffffffffffffffffffffffffff16848281518110611496577f4e487b7100000000000000000000000000000000000000000000000000000000600052603260045260246000fd5b60200260200101516080015173ffffffffffffffffffffffffffffffffffffffff16146114cc5782806114c890616e52565b9350505b80806114d790616e52565b91505061143d565b5060008267ffffffffffffffff811115611522577f4e487b7100000000000000000000000000000000000000000000000000000000600052604160045260246000fd5b60405190808252806020026020018201604052801561155b57816020015b611548614fa0565b8152602001906001900390816115405790505b5090506000805b855181101561168a57600073ffffffffffffffffffffffffffffffffffffffff168682815181106115bc577f4e487b7100000000000000000000000000000000000000000000000000000000600052603260045260246000fd5b60200260200101516080015173ffffffffffffffffffffffffffffffffffffffff16146116775785818151811061161c577f4e487b7100000000000000000000000000000000000000000000000000000000600052603260045260246000fd5b602002602001015183838151811061165d577f4e487b7100000000000000000000000000000000000000000000000000000000600052603260045260246000fd5b6020026020010181905250818061167390616e52565b9250505b808061168290616e52565b915050611562565b5061169682858f61463c565b915060008a14156116a657600199505b8a846116b29190616cec565b8a11156116e3578a846116c59190616cec565b6000116116dd578a846116d89190616cec565b6116e0565b60005b99505b60008a8351116116f45782516116f6565b8a5b67ffffffffffffffff811115611735577f4e487b7100000000000000000000000000000000000000000000000000000000600052604160045260246000fd5b60405190808252806020026020018201604052801561176e57816020015b61175b614fa0565b8152602001906001900390816117535790505b5090508a835111156118495760005b8b8110156118285783818e6117929190616c0b565b815181106117c9577f4e487b7100000000000000000000000000000000000000000000000000000000600052603260045260246000fd5b602002602001015182828151811061180a577f4e487b7100000000000000000000000000000000000000000000000000000000600052603260045260246000fd5b6020026020010181905250808061182090616e52565b91505061177d565b50808b8d6118369190616c0b565b8699509950995050505050505050611865565b828b8d6118569190616c0b565b86995099509950505050505050505b955095509592505050565b600e6020528060005260406000206000915090508060000160009054906101000a900473ffffffffffffffffffffffffffffffffffffffff16908060010154908060020154908060030154908060040160009054906101000a900473ffffffffffffffffffffffffffffffffffffffff16908060050160009054906101000a900473ffffffffffffffffffffffffffffffffffffffff169080600601805461191790616e20565b80601f016020809104026020016040519081016040528092919081815260200182805461194390616e20565b80156119905780601f1061196557610100808354040283529160200191611990565b820191906000526020600020905b81548152906001019060200180831161197357829003601f168201915b50505050509080600701549080600801549080600901604051806080016040529081600082015481526020016001820160009054906101000a900460ff166004811115611a06577f4e487b7100000000000000000000000000000000000000000000000000000000600052602160045260246000fd5b6004811115611a3e577f4e487b7100000000000000000000000000000000000000000000000000000000600052602160045260246000fd5b81526020016001820160019054906101000a900460ff166002811115611a8d577f4e487b7100000000000000000000000000000000000000000000000000000000600052602160045260246000fd5b6002811115611ac5577f4e487b7100000000000000000000000000000000000000000000000000000000600052602160045260246000fd5b815260200160028201548152505090508a565b8160016004811115611b13577f4e487b7100000000000000000000000000000000000000000000000000000000600052602160045260246000fd5b600e600083815260200190815260200160002060090160010160009054906101000a900460ff166004811115611b72577f4e487b7100000000000000000000000000000000000000000000000000000000600052602160045260246000fd5b14611bb2576040517f08c379a0000000000000000000000000000000000000000000000000000000008152600401611ba9906167de565b60405180910390fd5b8242600e6000838152602001908152602001600020600701541015611c0c576040517f08c379a0000000000000000000000000000000000000000000000000000000008152600401611c03906167be565b60405180910390fd5b60026001541415611c52576040517f08c379a0000000000000000000000000000000000000000000000000000000008152600401611c499061699e565b60405180910390fd5b60026001819055506000600e60008681526020019081526020016000209050611c97612710600354611c849190616c61565b82600201546142ae90919063ffffffff16565b841015611cd9576040517f08c379a0000000000000000000000000000000000000000000000000000000008152600401611cd09061683e565b60405180910390fd5b80600201548411611d1f576040517f08c379a0000000000000000000000000000000000000000000000000000000008152600401611d16906166de565b60405180910390fd5b7f837a23973d918871600261cae8824554f2e67337a0193179d02dead0a17560f08534611d5d611d4e88613fd9565b886142ae90919063ffffffff16565b604051611d6c93929190616a63565b60405180910390a1611d8f611d8085613fd9565b856142ae90919063ffffffff16565b3414611dd0576040517f08c379a0000000000000000000000000000000000000000000000000000000008152600401611dc7906166fe565b60405180910390fd5b6000808260050160009054906101000a900473ffffffffffffffffffffffffffffffffffffffff16905085836003015411611e5c5760028360090160010160006101000a81548160ff02191690836004811115611e56577f4e487b7100000000000000000000000000000000000000000000000000000000600052602160045260246000fd5b02179055505b60006001600f60008a815260200190815260200160002080549050611e819190616c0b565b9050600060405180608001604052808381526020013373ffffffffffffffffffffffffffffffffffffffff168152602001898152602001428152509050600f60008a81526020019081526020016000208190806001815401808255809150506001900390600052602060002090600402016000909190919091506000820151816000015560208201518160010160006101000a81548173ffffffffffffffffffffffffffffffffffffffff021916908373ffffffffffffffffffffffffffffffffffffffff16021790555060408201518160020155606082015181600301555050600073ffffffffffffffffffffffffffffffffffffffff168373ffffffffffffffffffffffffffffffffffffffff1614611fba57600d60008a8152602001908152602001600020600001549350611fb98385613f07565b5b611fd5611fc689613fd9565b896142ae90919063ffffffff16565b600d60008b815260200190815260200160002060000181905550338560050160006101000a81548173ffffffffffffffffffffffffffffffffffffffff021916908373ffffffffffffffffffffffffffffffffffffffff16021790555087856002018190555050505050506001808190555050505050565b612055614e92565b73ffffffffffffffffffffffffffffffffffffffff166120736127e0565b73ffffffffffffffffffffffffffffffffffffffff16146120c9576040517f08c379a00000000000000000000000000000000000000000000000000000000081526004016120c09061689e565b60405180910390fd5b80600960006101000a81548160ff02191690831515021790555050565b6060600060108054905067ffffffffffffffff81111561212f577f4e487b7100000000000000000000000000000000000000000000000000000000600052604160045260246000fd5b60405190808252806020026020018201604052801561216857816020015b61215561503b565b81526020019060019003908161214d5790505b50905061217361503b565b60005b60108054905081101561255157601081815481106121bd577f4e487b7100000000000000000000000000000000000000000000000000000000600052603260045260246000fd5b9060005260206000200160009054906101000a900473ffffffffffffffffffffffffffffffffffffffff16826000019073ffffffffffffffffffffffffffffffffffffffff16908173ffffffffffffffffffffffffffffffffffffffff168152505060008260200181815250508482604001818152505060005b6011600060108481548110612275577f4e487b7100000000000000000000000000000000000000000000000000000000600052603260045260246000fd5b9060005260206000200160009054906101000a900473ffffffffffffffffffffffffffffffffffffffff1673ffffffffffffffffffffffffffffffffffffffff1673ffffffffffffffffffffffffffffffffffffffff168152602001908152602001600020805490508110156124f8576011600060108481548110612323577f4e487b7100000000000000000000000000000000000000000000000000000000600052603260045260246000fd5b9060005260206000200160009054906101000a900473ffffffffffffffffffffffffffffffffffffffff1673ffffffffffffffffffffffffffffffffffffffff1673ffffffffffffffffffffffffffffffffffffffff16815260200190815260200160002081815481106123c0577f4e487b7100000000000000000000000000000000000000000000000000000000600052603260045260246000fd5b90600052602060002090600302016002015486116124e5576124db6011600060108581548110612419577f4e487b7100000000000000000000000000000000000000000000000000000000600052603260045260246000fd5b9060005260206000200160009054906101000a900473ffffffffffffffffffffffffffffffffffffffff1673ffffffffffffffffffffffffffffffffffffffff1673ffffffffffffffffffffffffffffffffffffffff16815260200190815260200160002082815481106124b6577f4e487b7100000000000000000000000000000000000000000000000000000000600052603260045260246000fd5b90600052602060002090600302016001015484602001516142ae90919063ffffffff16565b8360200181815250505b80806124f090616e52565b915050612237565b5081838281518110612533577f4e487b7100000000000000000000000000000000000000000000000000000000600052603260045260246000fd5b6020026020010181905250808061254990616e52565b915050612176565b508192505050919050565b60085481565b61256a614e92565b73ffffffffffffffffffffffffffffffffffffffff166125886127e0565b73ffffffffffffffffffffffffffffffffffffffff16146125de576040517f08c379a00000000000000000000000000000000000000000000000000000000081526004016125d59061689e565b60405180910390fd5b80600260006101000a81548173ffffffffffffffffffffffffffffffffffffffff021916908373ffffffffffffffffffffffffffffffffffffffff16021790555050565b61262a614e92565b73ffffffffffffffffffffffffffffffffffffffff166126486127e0565b73ffffffffffffffffffffffffffffffffffffffff161461269e576040517f08c379a00000000000000000000000000000000000000000000000000000000081526004016126959061689e565b60405180910390fd5b6126a86000614e9a565b565b60045481565b6126b8614e92565b73ffffffffffffffffffffffffffffffffffffffff166126d66127e0565b73ffffffffffffffffffffffffffffffffffffffff161461272c576040517f08c379a00000000000000000000000000000000000000000000000000000000081526004016127239061689e565b60405180910390fd5b600073ffffffffffffffffffffffffffffffffffffffff168173ffffffffffffffffffffffffffffffffffffffff16141561279c576040517f08c379a00000000000000000000000000000000000000000000000000000000081526004016127939061693e565b60405180910390fd5b80600560006101000a81548173ffffffffffffffffffffffffffffffffffffffff021916908373ffffffffffffffffffffffffffffffffffffffff16021790555050565b60008060009054906101000a900473ffffffffffffffffffffffffffffffffffffffff16905090565b8060016004811115612844577f4e487b7100000000000000000000000000000000000000000000000000000000600052602160045260246000fd5b600e600083815260200190815260200160002060090160010160009054906101000a900460ff1660048111156128a3577f4e487b7100000000000000000000000000000000000000000000000000000000600052602160045260246000fd5b146128e3576040517f08c379a00000000000000000000000000000000000000000000000000000000081526004016128da906167de565b60405180910390fd5b81600073ffffffffffffffffffffffffffffffffffffffff16600e600083815260200190815260200160002060050160009054906101000a900473ffffffffffffffffffffffffffffffffffffffff1673ffffffffffffffffffffffffffffffffffffffff1614612989576040517f08c379a0000000000000000000000000000000000000000000000000000000008152600401612980906168fe565b60405180910390fd5b82600e600082815260200190815260200160002060040160009054906101000a900473ffffffffffffffffffffffffffffffffffffffff1673ffffffffffffffffffffffffffffffffffffffff163373ffffffffffffffffffffffffffffffffffffffff1614612a2e576040517f08c379a0000000000000000000000000000000000000000000000000000000008152600401612a259061675e565b60405180910390fd5b60026001541415612a74576040517f08c379a0000000000000000000000000000000000000000000000000000000008152600401612a6b9061699e565b60405180910390fd5b60026001819055506004600e600086815260200190815260200160002060090160010160006101000a81548160ff02191690836004811115612adf577f4e487b7100000000000000000000000000000000000000000000000000000000600052602160045260246000fd5b0217905550612aee600c613ae7565b612af9843033613afd565b7f28601d865dccc9f113e15a7185c1b38c085d598c71250d3337916a428536d77184604051612b2891906169be565b60405180910390a16001808190555050505050565b60065481565b600260009054906101000a900473ffffffffffffffffffffffffffffffffffffffff1673ffffffffffffffffffffffffffffffffffffffff163373ffffffffffffffffffffffffffffffffffffffff1614612bd3576040517f08c379a0000000000000000000000000000000000000000000000000000000008152600401612bca9061691e565b60405180910390fd5b612710811115612c18576040517f08c379a0000000000000000000000000000000000000000000000000000000008152600401612c0f9061677e565b60405180910390fd5b8060068190555050565b60007f2360e6b28d144bcde27ca99baa660f822a59e919f243c01dfaec5a55986df5f58989898989898989604051612c619897969594939291906163df565b60405180910390a17fbc197c819b3e337a6f9652dd10becd7eef83032af3b9d958d3d42f6694146621905098975050505050505050565b60026001541415612cde576040517f08c379a0000000000000000000000000000000000000000000000000000000008152600401612cd59061699e565b60405180910390fd5b60026001819055506000600a60003373ffffffffffffffffffffffffffffffffffffffff1673ffffffffffffffffffffffffffffffffffffffff16815260200190815260200160002054905060008111612d6d576040517f08c379a0000000000000000000000000000000000000000000000000000000008152600401612d649061685e565b60405180910390fd5b6000600a60003373ffffffffffffffffffffffffffffffffffffffff1673ffffffffffffffffffffffffffffffffffffffff1681526020019081526020016000208190555060003373ffffffffffffffffffffffffffffffffffffffff1682604051612dd8906163af565b60006040518083038185875af1925050503d8060008114612e15576040519150601f19603f3d011682016040523d82523d6000602084013e612e1a565b606091505b5050905080612e2857600080fd5b505060018081905550565b60035481565b600960009054906101000a900460ff1681565b6000600960009054906101000a900460ff16612e9d576040517f08c379a0000000000000000000000000000000000000000000000000000000008152600401612e949061671e565b60405180910390fd5b60026001541415612ee3576040517f08c379a0000000000000000000000000000000000000000000000000000000008152600401612eda9061699e565b60405180910390fd5b600260018190555042612f0160045487614f5e90919063ffffffff16565b11612f41576040517f08c379a0000000000000000000000000000000000000000000000000000000008152600401612f389061681e565b60405180910390fd5b60006002811115612f7b577f4e487b7100000000000000000000000000000000000000000000000000000000600052602160045260246000fd5b836002811115612fb4577f4e487b7100000000000000000000000000000000000000000000000000000000600052602160045260246000fd5b1415612ff5576040517f08c379a0000000000000000000000000000000000000000000000000000000008152600401612fec9061679e565b60405180910390fd5b600060019050600280811115613034577f4e487b7100000000000000000000000000000000000000000000000000000000600052602160045260246000fd5b84600281111561306d577f4e487b7100000000000000000000000000000000000000000000000000000000600052602160045260246000fd5b1415613077578290505b613081600b613ae7565b61308b600b6142c4565b91506040518061014001604052808c73ffffffffffffffffffffffffffffffffffffffff1681526020018b81526020018a81526020018881526020013373ffffffffffffffffffffffffffffffffffffffff168152602001600073ffffffffffffffffffffffffffffffffffffffff16815260200189815260200187815260200183815260200160405180608001604052808881526020016001600481111561315d577f4e487b7100000000000000000000000000000000000000000000000000000000600052602160045260246000fd5b815260200187600281111561319b577f4e487b7100000000000000000000000000000000000000000000000000000000600052602160045260246000fd5b815260200184815250815250600e600084815260200190815260200160002060008201518160000160006101000a81548173ffffffffffffffffffffffffffffffffffffffff021916908373ffffffffffffffffffffffffffffffffffffffff16021790555060208201518160010155604082015181600201556060820151816003015560808201518160040160006101000a81548173ffffffffffffffffffffffffffffffffffffffff021916908373ffffffffffffffffffffffffffffffffffffffff16021790555060a08201518160050160006101000a81548173ffffffffffffffffffffffffffffffffffffffff021916908373ffffffffffffffffffffffffffffffffffffffff16021790555060c08201518160060190805190602001906132c9929190615072565b5060e082015181600701556101008201518160080155610120820151816009016000820151816000015560208201518160010160006101000a81548160ff02191690836004811115613344577f4e487b7100000000000000000000000000000000000000000000000000000000600052602160045260246000fd5b021790555060408201518160010160016101000a81548160ff0219169083600281111561339a577f4e487b7100000000000000000000000000000000000000000000000000000000600052602160045260246000fd5b02179055506060820151816002015550509050506133b9823330613afd565b7f499956890a9895eaccdc092c181e94675b9d5f2a0d18e2313e0748296783e6cf828c8c8c338b6040516133f2969594939291906169d9565b60405180910390a150600180819055509998505050505050505050565b60007f01109c91bca177ae1324bc2fc89be4b2573d2e59ad0cc75b1f3d3aa807814d3687878787878760405161344a96959493929190616484565b60405180910390a17ff23a6e612e1ff4830e658fe43f4e3cb4a5f8170bd5d9e69fb5d7a7fa9e4fdf9790509695505050505050565b613487614e92565b73ffffffffffffffffffffffffffffffffffffffff166134a56127e0565b73ffffffffffffffffffffffffffffffffffffffff16146134fb576040517f08c379a00000000000000000000000000000000000000000000000000000000081526004016134f29061689e565b60405180910390fd5b600073ffffffffffffffffffffffffffffffffffffffff168173ffffffffffffffffffffffffffffffffffffffff16141561356b576040517f08c379a00000000000000000000000000000000000000000000000000000000081526004016135629061673e565b60405180910390fd5b61357481614e9a565b50565b600260009054906101000a900473ffffffffffffffffffffffffffffffffffffffff1681565b600a6020528060005260406000206000915090505481565b6060600080600190505b6135c9600b6142c4565b81101561365c578373ffffffffffffffffffffffffffffffffffffffff16600e600083815260200190815260200160002060040160009054906101000a900473ffffffffffffffffffffffffffffffffffffffff1673ffffffffffffffffffffffffffffffffffffffff16141561364957818061364590616e52565b9250505b808061365490616e52565b9150506135bf565b5060008167ffffffffffffffff81111561369f577f4e487b7100000000000000000000000000000000000000000000000000000000600052604160045260246000fd5b6040519080825280602002602001820160405280156136d857816020015b6136c5614fa0565b8152602001906001900390816136bd5790505b5090506000600190505b6136ec600b6142c4565b811015613adc578473ffffffffffffffffffffffffffffffffffffffff16600e600083815260200190815260200160002060040160009054906101000a900473ffffffffffffffffffffffffffffffffffffffff1673ffffffffffffffffffffffffffffffffffffffff161415613ac957600e6000828152602001908152602001600020604051806101400160405290816000820160009054906101000a900473ffffffffffffffffffffffffffffffffffffffff1673ffffffffffffffffffffffffffffffffffffffff1673ffffffffffffffffffffffffffffffffffffffff1681526020016001820154815260200160028201548152602001600382015481526020016004820160009054906101000a900473ffffffffffffffffffffffffffffffffffffffff1673ffffffffffffffffffffffffffffffffffffffff1673ffffffffffffffffffffffffffffffffffffffff1681526020016005820160009054906101000a900473ffffffffffffffffffffffffffffffffffffffff1673ffffffffffffffffffffffffffffffffffffffff1673ffffffffffffffffffffffffffffffffffffffff1681526020016006820180546138ac90616e20565b80601f01602080910402602001604051908101604052809291908181526020018280546138d890616e20565b80156139255780601f106138fa57610100808354040283529160200191613925565b820191906000526020600020905b81548152906001019060200180831161390857829003601f168201915b50505050508152602001600782015481526020016008820154815260200160098201604051806080016040529081600082015481526020016001820160009054906101000a900460ff1660048111156139a7577f4e487b7100000000000000000000000000000000000000000000000000000000600052602160045260246000fd5b60048111156139df577f4e487b7100000000000000000000000000000000000000000000000000000000600052602160045260246000fd5b81526020016001820160019054906101000a900460ff166002811115613a2e577f4e487b7100000000000000000000000000000000000000000000000000000000600052602160045260246000fd5b6002811115613a66577f4e487b7100000000000000000000000000000000000000000000000000000000600052602160045260246000fd5b81526020016002820154815250508152505082600183613a869190616cec565b81518110613abd577f4e487b7100000000000000000000000000000000000000000000000000000000600052603260045260246000fd5b60200260200101819052505b8080613ad490616e52565b9150506136e2565b508092505050919050565b6001816000016000828254019250508190555050565b600073ffffffffffffffffffffffffffffffffffffffff168173ffffffffffffffffffffffffffffffffffffffff161415613b6d576040517f08c379a0000000000000000000000000000000000000000000000000000000008152600401613b649061697e565b60405180910390fd5b6000600e6000858152602001908152602001600020905060006004811115613bbe577f4e487b7100000000000000000000000000000000000000000000000000000000600052602160045260246000fd5b8160090160010160009054906101000a900460ff166004811115613c0b577f4e487b7100000000000000000000000000000000000000000000000000000000600052602160045260246000fd5b1415613c4c576040517f08c379a0000000000000000000000000000000000000000000000000000000008152600401613c439061687e565b60405180910390fd5b60008160090160010160019054906101000a900460ff16905060008260010154905060008360000160009054906101000a900473ffffffffffffffffffffffffffffffffffffffff16905060016002811115613cd1577f4e487b7100000000000000000000000000000000000000000000000000000000600052602160045260246000fd5b836002811115613d0a577f4e487b7100000000000000000000000000000000000000000000000000000000600052602160045260246000fd5b1415613d84578073ffffffffffffffffffffffffffffffffffffffff166323b872dd8787856040518463ffffffff1660e01b8152600401613d4d9392919061644d565b600060405180830381600087803b158015613d6757600080fd5b505af1158015613d7b573d6000803e3d6000fd5b50505050613efe565b600280811115613dbd577f4e487b7100000000000000000000000000000000000000000000000000000000600052602160045260246000fd5b836002811115613df6577f4e487b7100000000000000000000000000000000000000000000000000000000600052602160045260246000fd5b1415613ec25760008460090160020154905060008111613e4b576040517f08c379a0000000000000000000000000000000000000000000000000000000008152600401613e42906168de565b60405180910390fd5b8173ffffffffffffffffffffffffffffffffffffffff1663f242432a888886856040518563ffffffff1660e01b8152600401613e8a94939291906164e0565b600060405180830381600087803b158015613ea457600080fd5b505af1158015613eb8573d6000803e3d6000fd5b5050505050613efd565b6040517f08c379a0000000000000000000000000000000000000000000000000000000008152600401613ef4906167fe565b60405180910390fd5b5b50505050505050565b613f5981600a60008573ffffffffffffffffffffffffffffffffffffffff1673ffffffffffffffffffffffffffffffffffffffff168152602001908152602001600020546142ae90919063ffffffff16565b600a60008473ffffffffffffffffffffffffffffffffffffffff1673ffffffffffffffffffffffffffffffffffffffff168152602001908152602001600020819055507f943473d7f156d47b965634c405f8d98efee55257875df66522da90d91dd515918282604051613fcd929190616538565b60405180910390a15050565b6000614004612710613ff660065485614f7490919063ffffffff16565b614f8a90919063ffffffff16565b9050919050565b60006010805490501415614081576010829080600181540180825580915050600190039060005260206000200160009091909190916101000a81548173ffffffffffffffffffffffffffffffffffffffff021916908373ffffffffffffffffffffffffffffffffffffffff1602179055506141ae565b6000805b601080549050811015614142578373ffffffffffffffffffffffffffffffffffffffff16601082815481106140e3577f4e487b7100000000000000000000000000000000000000000000000000000000600052603260045260246000fd5b9060005260206000200160009054906101000a900473ffffffffffffffffffffffffffffffffffffffff1673ffffffffffffffffffffffffffffffffffffffff16141561412f57600191505b808061413a90616e52565b915050614085565b50806141ac576010839080600181540180825580915050600190039060005260206000200160009091909190916101000a81548173ffffffffffffffffffffffffffffffffffffffff021916908373ffffffffffffffffffffffffffffffffffffffff1602179055505b505b600060405180606001604052808473ffffffffffffffffffffffffffffffffffffffff168152602001838152602001428152509050601160008473ffffffffffffffffffffffffffffffffffffffff1673ffffffffffffffffffffffffffffffffffffffff16815260200190815260200160002081908060018154018082558091505060019003906000526020600020906003020160009091909190915060008201518160000160006101000a81548173ffffffffffffffffffffffffffffffffffffffff021916908373ffffffffffffffffffffffffffffffffffffffff16021790555060208201518160010155604082015181600201555050505050565b600081836142bc9190616c0b565b905092915050565b600081600001549050919050565b60606000845167ffffffffffffffff811115614317577f4e487b7100000000000000000000000000000000000000000000000000000000600052604160045260246000fd5b60405190808252806020026020018201604052801561435057816020015b61433d614fa0565b8152602001906001900390816143355790505b50905060005b855181101561449057836040516020016143709190616398565b604051602081830303815290604052805190602001208682815181106143bf577f4e487b7100000000000000000000000000000000000000000000000000000000600052603260045260246000fd5b602002602001015160c001516040516020016143db9190616398565b60405160208183030381529060405280519060200120141561447d57858181518110614430577f4e487b7100000000000000000000000000000000000000000000000000000000600052603260045260246000fd5b6020026020010151828281518110614471577f4e487b7100000000000000000000000000000000000000000000000000000000600052603260045260246000fd5b60200260200101819052505b808061448890616e52565b915050614356565b5061449b81856144a8565b9050809150509392505050565b60606000835167ffffffffffffffff8111156144ed577f4e487b7100000000000000000000000000000000000000000000000000000000600052604160045260246000fd5b60405190808252806020026020018201604052801561452657816020015b614513614fa0565b81526020019060019003908161450b5790505b509050600083146146315760005b84518110156146275783858281518110614577577f4e487b7100000000000000000000000000000000000000000000000000000000600052603260045260246000fd5b60200260200101516101200151600001511415614614578481815181106145c7577f4e487b7100000000000000000000000000000000000000000000000000000000600052603260045260246000fd5b6020026020010151828281518110614608577f4e487b7100000000000000000000000000000000000000000000000000000000600052603260045260246000fd5b60200260200101819052505b808061461f90616e52565b915050614534565b5080915050614636565b839150505b92915050565b6060614646614fa0565b60005b84811015614e865760006001826146609190616c0b565b90505b85811015614e7257600260038111156146a5577f4e487b7100000000000000000000000000000000000000000000000000000000600052602160045260246000fd5b8560038111156146de577f4e487b7100000000000000000000000000000000000000000000000000000000600052602160045260246000fd5b14156148875786818151811061471d577f4e487b7100000000000000000000000000000000000000000000000000000000600052603260045260246000fd5b602002602001015160e00151878381518110614762577f4e487b7100000000000000000000000000000000000000000000000000000000600052603260045260246000fd5b602002602001015160e001511115614882578682815181106147ad577f4e487b7100000000000000000000000000000000000000000000000000000000600052603260045260246000fd5b602002602001015192508681815181106147f0577f4e487b7100000000000000000000000000000000000000000000000000000000600052603260045260246000fd5b6020026020010151878381518110614831577f4e487b7100000000000000000000000000000000000000000000000000000000600052603260045260246000fd5b602002602001018190525082878281518110614876577f4e487b7100000000000000000000000000000000000000000000000000000000600052603260045260246000fd5b60200260200101819052505b614e5f565b6003808111156148c0577f4e487b7100000000000000000000000000000000000000000000000000000000600052602160045260246000fd5b8560038111156148f9577f4e487b7100000000000000000000000000000000000000000000000000000000600052602160045260246000fd5b1415614aa257868181518110614938577f4e487b7100000000000000000000000000000000000000000000000000000000600052603260045260246000fd5b602002602001015160e0015187838151811061497d577f4e487b7100000000000000000000000000000000000000000000000000000000600052603260045260246000fd5b602002602001015160e001511015614a9d578682815181106149c8577f4e487b7100000000000000000000000000000000000000000000000000000000600052603260045260246000fd5b60200260200101519250868181518110614a0b577f4e487b7100000000000000000000000000000000000000000000000000000000600052603260045260246000fd5b6020026020010151878381518110614a4c577f4e487b7100000000000000000000000000000000000000000000000000000000600052603260045260246000fd5b602002602001018190525082878281518110614a91577f4e487b7100000000000000000000000000000000000000000000000000000000600052603260045260246000fd5b60200260200101819052505b614e5e565b60006003811115614adc577f4e487b7100000000000000000000000000000000000000000000000000000000600052602160045260246000fd5b856003811115614b15577f4e487b7100000000000000000000000000000000000000000000000000000000600052602160045260246000fd5b1415614cbe57868181518110614b54577f4e487b7100000000000000000000000000000000000000000000000000000000600052603260045260246000fd5b602002602001015160400151878381518110614b99577f4e487b7100000000000000000000000000000000000000000000000000000000600052603260045260246000fd5b6020026020010151604001511115614cb957868281518110614be4577f4e487b7100000000000000000000000000000000000000000000000000000000600052603260045260246000fd5b60200260200101519250868181518110614c27577f4e487b7100000000000000000000000000000000000000000000000000000000600052603260045260246000fd5b6020026020010151878381518110614c68577f4e487b7100000000000000000000000000000000000000000000000000000000600052603260045260246000fd5b602002602001018190525082878281518110614cad577f4e487b7100000000000000000000000000000000000000000000000000000000600052603260045260246000fd5b60200260200101819052505b614e5d565b868181518110614cf7577f4e487b7100000000000000000000000000000000000000000000000000000000600052603260045260246000fd5b602002602001015160400151878381518110614d3c577f4e487b7100000000000000000000000000000000000000000000000000000000600052603260045260246000fd5b6020026020010151604001511015614e5c57868281518110614d87577f4e487b7100000000000000000000000000000000000000000000000000000000600052603260045260246000fd5b60200260200101519250868181518110614dca577f4e487b7100000000000000000000000000000000000000000000000000000000600052603260045260246000fd5b6020026020010151878381518110614e0b577f4e487b7100000000000000000000000000000000000000000000000000000000600052603260045260246000fd5b602002602001018190525082878281518110614e50577f4e487b7100000000000000000000000000000000000000000000000000000000600052603260045260246000fd5b60200260200101819052505b5b5b5b8080614e6a90616e52565b915050614663565b508080614e7e90616e52565b915050614649565b50849150509392505050565b600033905090565b60008060009054906101000a900473ffffffffffffffffffffffffffffffffffffffff169050816000806101000a81548173ffffffffffffffffffffffffffffffffffffffff021916908373ffffffffffffffffffffffffffffffffffffffff1602179055508173ffffffffffffffffffffffffffffffffffffffff168173ffffffffffffffffffffffffffffffffffffffff167f8be0079c531659141344cd1fd0a4f28419497f9722a3daafe3b4186f6b6457e060405160405180910390a35050565b60008183614f6c9190616cec565b905092915050565b60008183614f829190616c92565b905092915050565b60008183614f989190616c61565b905092915050565b604051806101400160405280600073ffffffffffffffffffffffffffffffffffffffff168152602001600081526020016000815260200160008152602001600073ffffffffffffffffffffffffffffffffffffffff168152602001600073ffffffffffffffffffffffffffffffffffffffff1681526020016060815260200160008152602001600081526020016150356150f8565b81525090565b6040518060600160405280600073ffffffffffffffffffffffffffffffffffffffff16815260200160008152602001600081525090565b82805461507e90616e20565b90600052602060002090601f0160209004810192826150a057600085556150e7565b82601f106150b957805160ff19168380011785556150e7565b828001600101855582156150e7579182015b828111156150e65782518255916020019190600101906150cb565b5b5090506150f49190615190565b5090565b60405180608001604052806000815260200160006004811115615144577f4e487b7100000000000000000000000000000000000000000000000000000000600052602160045260246000fd5b815260200160006002811115615183577f4e487b7100000000000000000000000000000000000000000000000000000000600052602160045260246000fd5b8152602001600081525090565b5b808211156151a9576000816000905550600101615191565b5090565b60006151c06151bb84616acb565b616a9a565b9050828152602081018484840111156151d857600080fd5b6151e3848285616dde565b509392505050565b6000813590506151fa81616fbf565b92915050565b60008083601f84011261521257600080fd5b8235905067ffffffffffffffff81111561522b57600080fd5b60208301915083602082028301111561524357600080fd5b9250929050565b60008135905061525981616fd6565b92915050565b60008135905061526e81616fed565b92915050565b60008083601f84011261528657600080fd5b8235905067ffffffffffffffff81111561529f57600080fd5b6020830191508360018202830111156152b757600080fd5b9250929050565b6000813590506152cd81617004565b92915050565b6000813590506152e281617014565b92915050565b600082601f8301126152f957600080fd5b81356153098482602086016151ad565b91505092915050565b60008135905061532181617024565b92915050565b60006020828403121561533957600080fd5b6000615347848285016151eb565b91505092915050565b60008060008060008060008060a0898b03121561536c57600080fd5b600061537a8b828c016151eb565b985050602061538b8b828c016151eb565b975050604089013567ffffffffffffffff8111156153a857600080fd5b6153b48b828c01615200565b9650965050606089013567ffffffffffffffff8111156153d357600080fd5b6153df8b828c01615200565b9450945050608089013567ffffffffffffffff8111156153fe57600080fd5b61540a8b828c01615274565b92509250509295985092959890939650565b60008060008060008060a0878903121561543557600080fd5b600061544389828a016151eb565b965050602061545489828a016151eb565b955050604061546589828a01615312565b945050606061547689828a01615312565b935050608087013567ffffffffffffffff81111561549357600080fd5b61549f89828a01615274565b92509250509295509295509295565b60008060008060008060008060006101208a8c0312156154cd57600080fd5b60006154db8c828d016151eb565b99505060206154ec8c828d01615312565b98505060406154fd8c828d01615312565b97505060608a013567ffffffffffffffff81111561551a57600080fd5b6155268c828d016152e8565b96505060806155378c828d01615312565b95505060a06155488c828d01615312565b94505060c06155598c828d01615312565b93505060e061556a8c828d016152d3565b92505061010061557c8c828d01615312565b9150509295985092959850929598565b60006020828403121561559e57600080fd5b60006155ac8482850161524a565b91505092915050565b6000602082840312156155c757600080fd5b60006155d58482850161525f565b91505092915050565b6000602082840312156155f057600080fd5b60006155fe84828501615312565b91505092915050565b600080600080600060a0868803121561561f57600080fd5b600061562d88828901615312565b955050602061563e888289016152be565b945050604086013567ffffffffffffffff81111561565b57600080fd5b615667888289016152e8565b935050606061567888828901615312565b925050608061568988828901615312565b9150509295509295909350565b600080604083850312156156a957600080fd5b60006156b785828601615312565b92505060206156c885828601615312565b9150509250929050565b60006156de8383616209565b905092915050565b60006156f283836162e3565b60808301905092915050565b600061570a8383616338565b60608301905092915050565b61571f81616d20565b82525050565b61572e81616d20565b82525050565b600061573f82616b2b565b6157498185616b7e565b93508360208202850161575b85616afb565b8060005b85811015615797578484038952815161577885826156d2565b945061578383616b57565b925060208a0199505060018101905061575f565b50829750879550505050505092915050565b60006157b482616b36565b6157be8185616b8f565b93506157c983616b0b565b8060005b838110156157fa5781516157e188826156e6565b97506157ec83616b64565b9250506001810190506157cd565b5085935050505092915050565b600061581282616b41565b61581c8185616ba0565b935061582783616b1b565b8060005b8381101561585857815161583f88826156fe565b975061584a83616b71565b92505060018101905061582b565b5085935050505092915050565b60006158718385616bb1565b93507f07ffffffffffffffffffffffffffffffffffffffffffffffffffffffffffffff8311156158a057600080fd5b6020830292506158b1838584616dde565b82840190509392505050565b6158c681616d32565b82525050565b6158d581616d3e565b82525050565b60006158e78385616bc2565b93506158f4838584616dde565b6158fd83616f86565b840190509392505050565b61591181616dba565b82525050565b61592081616dcc565b82525050565b600061593182616b4c565b61593b8185616bde565b935061594b818560208601616ded565b61595481616f86565b840191505092915050565b600061596a82616b4c565b6159748185616bef565b9350615984818560208601616ded565b61598d81616f86565b840191505092915050565b60006159a382616b4c565b6159ad8185616c00565b93506159bd818560208601616ded565b80840191505092915050565b60006159d6602f83616bef565b91507f49742073686f756c6420626520686967686572207468616e207468652063757260008301527f72656e742062696420616d6f756e7400000000000000000000000000000000006020830152604082019050919050565b6000615a3c603383616bef565b91507f546865207061796d656e7420616d6f756e7420616e642074686520626964206160008301527f6d6f756e742061726520646966666572656e74000000000000000000000000006020830152604082019050919050565b6000615aa2601083616bef565b91507f4d61726b657420697320636c6f736564000000000000000000000000000000006000830152602082019050919050565b6000615ae2602683616bef565b91507f4f776e61626c653a206e6577206f776e657220697320746865207a65726f206160008301527f64647265737300000000000000000000000000000000000000000000000000006020830152604082019050919050565b6000615b48601483616bef565b91507f43616c6c6572206973206e6f742053656c6c65720000000000000000000000006000830152602082019050919050565b6000615b88601a83616bef565b91507f4665652070657263656e746167657320657863656564206d61780000000000006000830152602082019050919050565b6000615bc8601b83616bef565b91507f496e76616c696420746f6b656e20747970652070726f766964656400000000006000830152602082019050919050565b6000615c08602a83616bef565b91507f5472616e73616374696f6e206e6f742076616c696420666f722065787069726560008301527f642041756374696f6e73000000000000000000000000000000000000000000006020830152604082019050919050565b6000615c6e601e83616bef565b91507f5472616e73616374696f6e206f6e6c79206f70656e2041756374696f6e7300006000830152602082019050919050565b6000615cae601f83616bef565b91507f496e76616c696420746f6b656e207479706520666f72207472616e73666572006000830152602082019050919050565b6000615cee602b83616bef565b91507f4578706972792064617465206973206e6f742066617220656e6f75676820696e60008301527f20746865206675747572650000000000000000000000000000000000000000006020830152604082019050919050565b6000615d54603983616bef565b91507f4269642068617320746f206578636565642063757272656e742070726963652060008301527f627920746865206d696e42696453697a65206f72206d6f7265000000000000006020830152604082019050919050565b6000615dba601f83616bef565b91507f5573657220686173206e6f206372656469747320746f207769746864726177006000830152602082019050919050565b6000615dfa602d83616bef565b91507f43616e6e6f74207472616e7366657220746f6b656e206f66206e6f6e2065786960008301527f7374656e742061756374696f6e000000000000000000000000000000000000006020830152604082019050919050565b6000615e60602083616bef565b91507f4f776e61626c653a2063616c6c6572206973206e6f7420746865206f776e65726000830152602082019050919050565b6000615ea0602b83616bef565b91507f5472616e73616374696f6e206f6e6c792076616c696420666f7220657870697260008301527f65642041756374696f6e730000000000000000000000000000000000000000006020830152604082019050919050565b6000615f06602c83616bef565b91507f43616e6e6f74207472616e736665722030207175616e74697479206f6620455260008301527f433131353520746f6b656e7300000000000000000000000000000000000000006020830152604082019050919050565b6000615f6c601883616bef565b91507f41756374696f6e20686173206269647320616c726561647900000000000000006000830152602082019050919050565b6000615fac600b83616bef565b91507f61646d696e3a207775743f0000000000000000000000000000000000000000006000830152602082019050919050565b6000615fec600f83616bef565b91507f496e76616c6964204164647265737300000000000000000000000000000000006000830152602082019050919050565b600061602c602783616bef565b91507f5472616e73616374696f6e206f6e6c79206f70656e206f7220636c6f7365204160008301527f756374696f6e73000000000000000000000000000000000000000000000000006020830152604082019050919050565b6000616092602583616bef565b91507f43616e6e6f74207472616e7366657220746f6b656e20746f207a65726f20616460008301527f64726573730000000000000000000000000000000000000000000000000000006020830152604082019050919050565b60006160f8600083616bc2565b9150600082019050919050565b6000616112600083616bd3565b9150600082019050919050565b600061612c601f83616bef565b91507f5265656e7472616e637947756172643a207265656e7472616e742063616c6c006000830152602082019050919050565b608082016000820151616175600085018261637a565b5060208201516161886020850182615908565b50604082015161619b6040850182615917565b5060608201516161ae606085018261637a565b50505050565b6080820160008201516161ca600085018261637a565b5060208201516161dd6020850182615908565b5060408201516161f06040850182615917565b506060820151616203606085018261637a565b50505050565b60006101a0830160008301516162226000860182615716565b506020830151616235602086018261637a565b506040830151616248604086018261637a565b50606083015161625b606086018261637a565b50608083015161626e6080860182615716565b5060a083015161628160a0860182615716565b5060c083015184820360c08601526162998282615926565b91505060e08301516162ae60e086018261637a565b506101008301516162c361010086018261637a565b506101208301516162d861012086018261615f565b508091505092915050565b6080820160008201516162f9600085018261637a565b50602082015161630c6020850182615716565b50604082015161631f604085018261637a565b506060820151616332606085018261637a565b50505050565b60608201600082015161634e6000850182615716565b506020820151616361602085018261637a565b506040820151616374604085018261637a565b50505050565b61638381616db0565b82525050565b61639281616db0565b82525050565b60006163a48284615998565b915081905092915050565b60006163ba82616105565b9150819050919050565b60006020820190506163d96000830184615725565b92915050565b600060a0820190506163f4600083018b615725565b616401602083018a615725565b818103604083015261641481888a615865565b90508181036060830152616429818688615865565b9050818103608083015261643e8184866158db565b90509998505050505050505050565b60006060820190506164626000830186615725565b61646f6020830185615725565b61647c6040830184616389565b949350505050565b600060a0820190506164996000830189615725565b6164a66020830188615725565b6164b36040830187616389565b6164c06060830186616389565b81810360808301526164d38184866158db565b9050979650505050505050565b600060a0820190506164f56000830187615725565b6165026020830186615725565b61650f6040830185616389565b61651c6060830184616389565b818103608083015261652d816160eb565b905095945050505050565b600060408201905061654d6000830185615725565b61655a6020830184616389565b9392505050565b60006101a082019050616577600083018d615725565b616584602083018c616389565b616591604083018b616389565b61659e606083018a616389565b6165ab6080830189615725565b6165b860a0830188615725565b81810360c08301526165ca818761595f565b90506165d960e0830186616389565b6165e7610100830185616389565b6165f56101208301846161b4565b9b9a5050505050505050505050565b6000602082019050818103600083015261661e8184615734565b905092915050565b600060608201905081810360008301526166408186615734565b905061664f6020830185616389565b61665c6040830184616389565b949350505050565b6000602082019050818103600083015261667e81846157a9565b905092915050565b600060208201905081810360008301526166a08184615807565b905092915050565b60006020820190506166bd60008301846158bd565b92915050565b60006020820190506166d860008301846158cc565b92915050565b600060208201905081810360008301526166f7816159c9565b9050919050565b6000602082019050818103600083015261671781615a2f565b9050919050565b6000602082019050818103600083015261673781615a95565b9050919050565b6000602082019050818103600083015261675781615ad5565b9050919050565b6000602082019050818103600083015261677781615b3b565b9050919050565b6000602082019050818103600083015261679781615b7b565b9050919050565b600060208201905081810360008301526167b781615bbb565b9050919050565b600060208201905081810360008301526167d781615bfb565b9050919050565b600060208201905081810360008301526167f781615c61565b9050919050565b6000602082019050818103600083015261681781615ca1565b9050919050565b6000602082019050818103600083015261683781615ce1565b9050919050565b6000602082019050818103600083015261685781615d47565b9050919050565b6000602082019050818103600083015261687781615dad565b9050919050565b6000602082019050818103600083015261689781615ded565b9050919050565b600060208201905081810360008301526168b781615e53565b9050919050565b600060208201905081810360008301526168d781615e93565b9050919050565b600060208201905081810360008301526168f781615ef9565b9050919050565b6000602082019050818103600083015261691781615f5f565b9050919050565b6000602082019050818103600083015261693781615f9f565b9050919050565b6000602082019050818103600083015261695781615fdf565b9050919050565b600060208201905081810360008301526169778161601f565b9050919050565b6000602082019050818103600083015261699781616085565b9050919050565b600060208201905081810360008301526169b78161611f565b9050919050565b60006020820190506169d36000830184616389565b92915050565b600060c0820190506169ee6000830189616389565b6169fb6020830188615725565b616a086040830187616389565b616a156060830186616389565b616a226080830185615725565b616a2f60a0830184616389565b979650505050505050565b6000604082019050616a4f6000830185616389565b616a5c60208301846158bd565b9392505050565b6000606082019050616a786000830186616389565b616a856020830185616389565b616a926040830184616389565b949350505050565b6000604051905081810181811067ffffffffffffffff82111715616ac157616ac0616f57565b5b8060405250919050565b600067ffffffffffffffff821115616ae657616ae5616f57565b5b601f19601f8301169050602081019050919050565b6000819050602082019050919050565b6000819050602082019050919050565b6000819050602082019050919050565b600081519050919050565b600081519050919050565b600081519050919050565b600081519050919050565b6000602082019050919050565b6000602082019050919050565b6000602082019050919050565b600082825260208201905092915050565b600082825260208201905092915050565b600082825260208201905092915050565b600082825260208201905092915050565b600082825260208201905092915050565b600081905092915050565b600082825260208201905092915050565b600082825260208201905092915050565b600081905092915050565b6000616c1682616db0565b9150616c2183616db0565b9250827fffffffffffffffffffffffffffffffffffffffffffffffffffffffffffffffff03821115616c5657616c55616e9b565b5b828201905092915050565b6000616c6c82616db0565b9150616c7783616db0565b925082616c8757616c86616eca565b5b828204905092915050565b6000616c9d82616db0565b9150616ca883616db0565b9250817fffffffffffffffffffffffffffffffffffffffffffffffffffffffffffffffff0483118215151615616ce157616ce0616e9b565b5b828202905092915050565b6000616cf782616db0565b9150616d0283616db0565b925082821015616d1557616d14616e9b565b5b828203905092915050565b6000616d2b82616d90565b9050919050565b60008115159050919050565b60007fffffffff0000000000000000000000000000000000000000000000000000000082169050919050565b6000819050616d7882616f97565b919050565b6000819050616d8b82616fab565b919050565b600073ffffffffffffffffffffffffffffffffffffffff82169050919050565b6000819050919050565b6000616dc582616d6a565b9050919050565b6000616dd782616d7d565b9050919050565b82818337600083830152505050565b60005b83811015616e0b578082015181840152602081019050616df0565b83811115616e1a576000848401525b50505050565b60006002820490506001821680616e3857607f821691505b60208210811415616e4c57616e4b616f28565b5b50919050565b6000616e5d82616db0565b91507fffffffffffffffffffffffffffffffffffffffffffffffffffffffffffffffff821415616e9057616e8f616e9b565b5b600182019050919050565b7f4e487b7100000000000000000000000000000000000000000000000000000000600052601160045260246000fd5b7f4e487b7100000000000000000000000000000000000000000000000000000000600052601260045260246000fd5b7f4e487b7100000000000000000000000000000000000000000000000000000000600052602160045260246000fd5b7f4e487b7100000000000000000000000000000000000000000000000000000000600052602260045260246000fd5b7f4e487b7100000000000000000000000000000000000000000000000000000000600052604160045260246000fd5b6000601f19601f8301169050919050565b60058110616fa857616fa7616ef9565b5b50565b60038110616fbc57616fbb616ef9565b5b50565b616fc881616d20565b8114616fd357600080fd5b50565b616fdf81616d32565b8114616fea57600080fd5b50565b616ff681616d3e565b811461700157600080fd5b50565b6004811061701157600080fd5b50565b6003811061702157600080fd5b50565b61702d81616db0565b811461703857600080fd5b5056fea2646970667358221220f3870f82e84e527f7a20c627c3b971483bfe54446ad682f648f817638e48571164736f6c63430008000033",
  "immutableReferences": {},
  "source": "// SPDX-License-Identifier: MIT\npragma solidity >=0.7.5 <0.9.0;\npragma abicoder v2;\n\nimport \"@openzeppelin/contracts/security/ReentrancyGuard.sol\";\nimport \"@openzeppelin/contracts/access/Ownable.sol\";\nimport \"@openzeppelin/contracts/utils/math/SafeMath.sol\";\nimport \"@openzeppelin/contracts/utils/math/Math.sol\";\nimport \"@openzeppelin/contracts/utils/Counters.sol\";\nimport \"@openzeppelin/contracts/token/ERC721/IERC721.sol\";\nimport \"@openzeppelin/contracts/token/ERC1155/IERC1155.sol\";\nimport \"./ERC1155Receiver.sol\";\n\n\n/**\n * @title NFT Auction Market\n * Sellers can choose a minimum, starting bid, an expiry time when the auction ends\n * Before creating an auction the seller has to approve this contract for the respective token,\n * which will be held in contract until the auction ends.\n * bid price = price + fee \n * which he will be refunded in case he gets outbid.\n * After the specified expiry date of an auction anyone can trigger the settlement \n * Not only will we transfer tokens to new owners, but we will also transfer sales money to sellers.\n * All comissions will be credited to the owner / deployer of the marketplace contract.\n */\ncontract NAMarket is Ownable, ReentrancyGuard, ERC1155Receiver {\n\n  // Protect against overflow\n  using SafeMath for uint256;\n  // Add math utilities missing in solidity\n  using Math for uint256;\n  \n  /* Constructor parameters */\n  // minBidSize,minAuctionLiveness, feePercentage\n  address public adminAddress; \n\n  // Minimum amount by which a new bid has to exceed previousBid 0.0001 = 1\n  uint256 public minBidSize = 1;\n  /* Minimum duration in seconds for which the auction has to be live\n   * timestamp 1h = 3600s\n   * default mainnet 10h / testnet 10m\n  */\n  uint256 public minAuctionLiveness = 10 * 60;\n    \n  // //transfer gas\n  // uint256 public gasSize = 100000;\n  // update fee address only owner\n  address public feeAddress;\n  // default fee percentage : 2.5%\n  uint256 public feePercentage = 250;\n  //total volume\n  uint256 public totalMarketVolume;\n  //total Sales\n  uint256 public totalSales;\n  //create auction on/off default = true\n  bool public marketStatus = true;\n\n\n  // Save Users credit balances (to be used when they are outbid)\n  mapping(address => uint256) public userPriceList;\n\n  using Counters for Counters.Counter;\n  // Number of auctions ever listed\n  Counters.Counter public totalAuctionCount;\n  // Number of auctions already sold\n  Counters.Counter private closedAuctionCount;\n\n  enum TokenType { NONE, ERC721, ERC1155 }\n  enum AuctionStatus { NONE, OPEN, CLOSE, SETTLED, CANCELED }\n  //enum Categories { NONE, Art, Sports, Gaming, Music, Entertainment, TradingCards, Collectibles }\n  enum Sort { ASC, DESC, NEW, END }\n\n  struct Auction {\n      address contractAddress;\n      uint256 tokenId;\n      uint256 currentPrice;\n      uint256 buyNowPrice;\n      address seller;\n      address highestBidder;\n      string auctionTitle;\n      uint256 expiryDate;\n      uint256 auctionId;\n      AuctionType auctionTypes;\n  }\n\n  struct AuctionType {\n      uint256 category;\n      AuctionStatus status;\n      TokenType tokenType;\n      uint256 quantity;\n  }\n  //fee+price\n  struct previousInfo {\n    uint256 previousPrice;\n  }\n\n  mapping(uint256 => previousInfo) private previousPriceList;\n\n  mapping(uint256 => Auction) public auctions;\n\n  //bid\n  struct Bid {\n        uint256 bidId;\n        address bidder;\n        uint256 price;\n        uint256 timestamp;\n  }\n  mapping (uint256 => Bid[]) private bidList;\n  // Unique seller address\n  address[] private uniqSellerList;\n\n  struct SellerSale {\n    address seller;\n    uint256 price;\n    uint256 timestamp;\n  }\n  mapping (address => SellerSale[]) private sellerSales;\n  // EVENTS\n  event AuctionCreated(\n      uint256 auctionId,\n      address contractAddress,\n      uint256 tokenId,\n      uint256 startingPrice,\n      address seller,\n      uint256 expiryDate\n  );\n  event NFTApproved(address nftContract);\n  event AuctionCanceled(uint256 auctionId);\n  event AuctionSettled(uint256 auctionId, bool sold);\n  event BidPlaced(uint256 auctionId, uint256 bidPrice);\n  event BidFailed(uint256 auctionId, uint256 bidPrice);\n  event UserCredited(address creditAddress, uint256 amount);\n  event priceBid(uint256 auctionId, uint256 cPrice, uint256 bidPrice);\n\n\n  // MODIFIERS\n  modifier onlyAdmin() {\n        require(msg.sender == adminAddress, \"admin: wut?\");\n        _;\n    }\n\n  modifier openAuction(uint256 auctionId) {\n      require(auctions[auctionId].auctionTypes.status == AuctionStatus.OPEN, \"Transaction only open Auctions\");\n        _;\n  }\n\n  modifier settleStatusCheck(uint256 auctionId) {\n    AuctionStatus auctionStatus = auctions[auctionId].auctionTypes.status;\n      require( auctionStatus != AuctionStatus.SETTLED || \n        auctionStatus != AuctionStatus.CANCELED, \"Transaction only open or close Auctions\");\n\n      if (auctionStatus == AuctionStatus.OPEN) {\n        require(auctions[auctionId].expiryDate < block.timestamp, \"Transaction only valid for expired Auctions\");\n      }\n    _;\n  }\n\n  modifier nonExpiredAuction(uint256 auctionId) {\n      require(auctions[auctionId].expiryDate >= block.timestamp, \"Transaction not valid for expired Auctions\");\n        _;\n  }\n\n  modifier onlyExpiredAuction(uint256 auctionId) {\n      require(auctions[auctionId].expiryDate < block.timestamp, \"Transaction only valid for expired Auctions\");\n        _;\n  }\n\n  modifier noBids(uint256 auctionId) {\n      require(auctions[auctionId].highestBidder == address(0), \"Auction has bids already\");\n        _;\n  }\n\n  modifier sellerOnly(uint256 auctionId) {\n      require(msg.sender == auctions[auctionId].seller, \"Caller is not Seller\");\n        _;\n  }\n\n  modifier marketStatusCheck() {\n      require(marketStatus, \"Market is closed\");\n        _;\n  }\n  // Update market status\n  function setMarkStatus(bool _marketStatus) public onlyOwner {\n        marketStatus = _marketStatus;\n  }\n  \n  // Update only owner \n  function setFeeAddress(address _feeAddress) public onlyOwner {\n        require(_feeAddress != address(0), \"Invalid Address\");\n        feeAddress = _feeAddress;\n  }\n  // Update admin address \n  function setAdmin(address _adminAddress) public onlyOwner {\n        adminAddress = _adminAddress;\n  }\n  // // gas update default min 21000\n  // function setGasSize(uint256 _gasSize) public onlyAdmin {\n  //       gasSize = _gasSize;\n  // }\n\n  // Update minBidSize \n  function setMinBidSize(uint256 _minBidSize) public onlyAdmin {\n        minBidSize = _minBidSize;\n  }\n  // Update minAuctionLiveness \n  function setMinAuctionLiveness(uint256 _minAuctionLiveness) public onlyAdmin {\n        minAuctionLiveness = _minAuctionLiveness;\n  }\n  // Update Fee percentages \n  function setFeePercentage(uint256 _feePercentage) public onlyAdmin {\n        require(_feePercentage <= 10000, \"Fee percentages exceed max\");\n        feePercentage = _feePercentage;\n  }\n\n  // Calculate fee due for an auction based on its feePrice\n  function calculateFee(uint256 _cuPrice) private view returns(uint256 fee){\n      fee  = _cuPrice.mul(feePercentage).div(10000);\n  }\n\n\n  /*\n  * AUCTION MANAGEMENT\n  * Creates a new auction and transfers the token to the contract to be held in escrow until the end of the auction.\n  * Requires this contract to be approved for the token to be auctioned.\n  */\n\n  function createAuction(address _contractAddress, uint256 _tokenId, uint256 _startingPrice, string memory auctionTitle,\n    uint256 _buyNowPrice, uint256 expiryDate, uint256 _category, TokenType _tokenType,\n    uint256 _quantity\n    ) public marketStatusCheck() nonReentrant \n    returns(uint256 auctionId){\n\n      require(expiryDate.sub(minAuctionLiveness) > block.timestamp, \"Expiry date is not far enough in the future\");\n      require(_tokenType != TokenType.NONE, \"Invalid token type provided\");\n\n      uint256 quantity = 1;\n      if(_tokenType == TokenType.ERC1155){\n        quantity = _quantity;\n      }\n\n      // Generate Auction Id\n      totalAuctionCount.increment();\n      auctionId = totalAuctionCount.current();\n\n      // Register new Auction\n      auctions[auctionId] = Auction(_contractAddress, _tokenId, _startingPrice, _buyNowPrice, msg.sender,\n       address(0), auctionTitle, expiryDate, auctionId, \n       AuctionType(_category,AuctionStatus.OPEN,  _tokenType, quantity));\n      \n      // Transfer Token\n      transferToken(auctionId, msg.sender, address(this));\n\n\n      emit AuctionCreated(auctionId, _contractAddress, _tokenId, _startingPrice, msg.sender, expiryDate);\n  }\n\n\n\n  /**\n   * Cancels an auction and returns the token to the original owner.\n   * Requires the caller to be the seller who created the auction, the auction to be open and no bids having been placed on it.\n   */\n  function cancelAuction(uint256 auctionId) public openAuction(auctionId) noBids(auctionId) sellerOnly(auctionId) nonReentrant{\n      auctions[auctionId].auctionTypes.status = AuctionStatus.CANCELED;\n      closedAuctionCount.increment();\n      transferToken(auctionId, address(this), msg.sender);\n      emit AuctionCanceled(auctionId);\n  }\n\n  /**\n   * Settles an auction.\n   * If at least one bid has been placed the token will be transfered to its new owner, the seller will be credited the sale price\n   * and the contract owner will be credited the fee.\n   * If no bid has been placed on the token it will just be transfered back to its original owner.\n   */\n  function settleAuction(uint256 auctionId) public settleStatusCheck(auctionId) nonReentrant{\n      Auction storage auction = auctions[auctionId];\n      auction.auctionTypes.status = AuctionStatus.SETTLED;\n      closedAuctionCount.increment();\n      \n      bool sold = auction.highestBidder != address(0);\n      if(sold){\n        // If token was sold transfer it to its new owner and credit seller / contractOwner with price / fee\n        transferToken(auctionId, address(this), auction.highestBidder);\n        creditUser(auction.seller, auction.currentPrice);\n        creditUser(feeAddress, calculateFee(auction.currentPrice));\n\n        saveSales(auction.seller, auction.currentPrice);\n        totalSales = totalSales.add(auction.currentPrice);\n      } else {\n        // If token was not sold, return ownership to the seller\n        transferToken(auctionId, address(this), auction.seller);\n      }\n      emit AuctionSettled(auctionId, sold);\n  }\n  //Save sales information\n  function saveSales(address sellerAddress, uint256 price) private {\n    if (uniqSellerList.length == 0) {\n      uniqSellerList.push(sellerAddress);\n    } else {\n      bool chkSeller = false;\n      for (uint256 i = 0; i < uniqSellerList.length; i++) {\n        if (uniqSellerList[i] == sellerAddress) {\n          chkSeller = true;\n        }\n      }\n      if (!chkSeller) {\n        uniqSellerList.push(sellerAddress);\n      }\n    }\n    SellerSale memory sellerInfo = SellerSale(sellerAddress, price, block.timestamp);\n    sellerSales[sellerAddress].push(sellerInfo);\n  }\n\n\n  /**\n   * Credit user with given amount in ETH\n   * Credits a user with a given amount that he can later withdraw from the contract.\n   * Used to refund outbidden buyers and credit sellers / contract owner upon sucessfull sale.\n   */\n  function creditUser(address creditAddress, uint256 amount) private {\n      userPriceList[creditAddress] = userPriceList[creditAddress].add(amount);\n      emit UserCredited(creditAddress, amount);\n  }\n\n  /**\n   *  Withdraws all credit of the caller\n   * Transfers all of his credit to the caller and sets the balance to 0\n   * Fails if caller has no credit.\n   */\n  function withdrawCredit() public nonReentrant{\n      uint256 creditBalance = userPriceList[msg.sender];\n      require(creditBalance > 0, \"User has no credits to withdraw\");\n      userPriceList[msg.sender] = 0;\n\n      (bool success, ) = msg.sender.call{value: creditBalance}(\"\");\n      require(success);\n  }\n\n\n  /**\n   * Places a bid on the selected auction at the selected price\n   * Requires the provided bid price to exceed the current highest bid by at least the minBidSize.\n   * Also requires the caller to transfer the exact amount of the chosen bidPrice plus fee, to be held in escrow by the contract\n   * until the auction is settled or a higher bid is placed.\n   */\n  function placeBid(uint256 auctionId, uint256 bidPrice) public payable openAuction(auctionId) nonExpiredAuction(auctionId) nonReentrant{\n      Auction storage auction = auctions[auctionId];\n      require(bidPrice >= auction.currentPrice.add(minBidSize/10000), \"Bid has to exceed current price by the minBidSize or more\");\n      require(bidPrice > auction.currentPrice, \"It should be higher than the current bid amount\");\n      emit priceBid(auctionId, msg.value, bidPrice.add(calculateFee(bidPrice)));\n\n      require(msg.value == bidPrice.add(calculateFee(bidPrice)), \"The payment amount and the bid amount are different\");\n\n      \n      uint256 creditAmount;\n      // If this is not the first bid, credit the previous highest bidder\n      address previousBidder = auction.highestBidder;\n      //TODO: buy now test\n      if (auction.buyNowPrice <= bidPrice) {\n        auction.auctionTypes.status = AuctionStatus.CLOSE;\n      }\n\n      //bid list \n      uint256 newBidId = bidList[auctionId].length + 1;\n      Bid memory newBid = Bid(newBidId, msg.sender, bidPrice, block.timestamp);\n      bidList[auctionId].push(newBid);\n\n      //bid refund\n      if(previousBidder != address(0)){\n        creditAmount = previousPriceList[auctionId].previousPrice;\n        creditUser(previousBidder, creditAmount);\n      }\n    \n      previousPriceList[auctionId].previousPrice = bidPrice.add(calculateFee(bidPrice));\n\n      auction.highestBidder = msg.sender;\n      auction.currentPrice = bidPrice;\n\n  }\n\n  /**\n   * Transfer the token(s) belonging to a given auction.\n   * Supports both ERC721 and ERC1155 tokens\n   */\n  function transferToken(uint256 auctionId, address from, address to) private {\n      require(to != address(0), \"Cannot transfer token to zero address\");\n\n      Auction storage auction = auctions[auctionId];\n      require(auction.auctionTypes.status != AuctionStatus.NONE, \"Cannot transfer token of non existent auction\");\n\n      TokenType tokenType = auction.auctionTypes.tokenType;\n      uint256 tokenId = auction.tokenId;\n      address contractAddress = auction.contractAddress;\n\n      if(tokenType == TokenType.ERC721){\n        IERC721(contractAddress).transferFrom(from, to, tokenId);\n      }\n      else if(tokenType == TokenType.ERC1155){\n        uint256 quantity = auction.auctionTypes.quantity;\n        require(quantity > 0, \"Cannot transfer 0 quantity of ERC1155 tokens\");\n        IERC1155(contractAddress).safeTransferFrom(from, to, tokenId, quantity, \"\");\n      }\n      else{\n        revert(\"Invalid token type for transfer\");\n      }\n  }\n\n  //data func auction list \n  function getOpenAuctions(uint256 category, Sort sort, string memory keyword, \n  uint256 offset, uint256 limit) public view returns \n  (Auction[] memory resultAuctions, uint256 nextOffset, uint256 totalCount) {\n        uint256 totalLen = totalAuctionCount.current()-closedAuctionCount.current();\n        Auction[] memory values = new Auction[] (totalLen);\n        uint256 resultLen = 0;\n        bytes memory checkString = bytes(keyword);\n\n        //auctionId is no zero.\n        //auction open, type count\n        for (uint256 i = 1; i <= totalLen; i++) {\n          if(auctions[i].auctionTypes.status == AuctionStatus.OPEN){\n            values[i-1] = auctions[i];\n          }  \n        }\n        if (checkString.length > 0) {\n          values = sfilter(values, category, keyword);\n        } else if (category != 0) {\n          values = cfilter(values, category);\n        }\n\n        for (uint256 i = 0; i < totalLen; i++) {\n          if(values[i].seller != address(0)){\n            resultLen++;\n          }  \n        }\n\n        Auction[] memory result = new Auction[](resultLen);\n        uint256 rId = 0;\n        for (uint256 i = 0; i < values.length; i++) {\n          if(values[i].seller != address(0)){\n            result[rId] = values[i];\n            rId++;\n          }  \n        }\n        //sort\n        result = sortMap(result, resultLen, sort);\n\n\n        if(limit == 0) {\n            limit = 1;\n        }\n        \n        if (limit > resultLen - offset) {\n            limit = 0 > resultLen - offset ? 0 : resultLen - offset;\n        }\n       \n        Auction[] memory newAuctions = new Auction[] (result.length > limit ? limit: result.length);\n\n        if (result.length > limit) {\n          for (uint256 i = 0; i < limit; i++) {\n            newAuctions[i] = result[offset+i];\n          }\n          return (newAuctions, offset + limit, resultLen);\n        } else {\n          return (result, offset + limit, resultLen);\n        }\n        \n  }\n \n  //bids\n  function getBids(uint256 auctionId) public view returns(Bid[] memory){\n      return bidList[auctionId];\n  }\n\n  function getUserAuctions(address seller) public view returns(Auction[] memory) {\n    uint256 resultCount = 0;\n\n    for(uint256 i = 1; i < totalAuctionCount.current(); i++) {\n      if (auctions[i].seller == seller) {\n        resultCount++;\n      }\n    }\n    Auction[] memory values = new Auction[] (resultCount);\n\n    for(uint256 i = 1; i < totalAuctionCount.current(); i++) {\n      if (auctions[i].seller == seller) {\n        values[i-1] = auctions[i];\n      }\n    }\n    return values;\n  }\n  //Filter based on the timestamp.\n  function getSellerSalesList(uint256 timestamp) public view returns(SellerSale[] memory) {\n    SellerSale[] memory topSellerList = new SellerSale[](uniqSellerList.length);\n    SellerSale memory cuSellerSales;\n    for(uint256 i = 0; i < uniqSellerList.length; i++) {\n      cuSellerSales.seller = uniqSellerList[i];\n      cuSellerSales.price = 0;\n      cuSellerSales.timestamp = timestamp;\n      for(uint256 j = 0; j < sellerSales[uniqSellerList[i]].length; j++) {\n        if (timestamp <= sellerSales[uniqSellerList[i]][j].timestamp) {\n          cuSellerSales.price = cuSellerSales.price.add(sellerSales[uniqSellerList[i]][j].price);\n        }\n      }\n      topSellerList[i] = cuSellerSales;\n    }\n    return topSellerList;\n  }\n  /* filter */\n  function sfilter(Auction[] memory values, uint256 category, string memory keyword) private pure returns (Auction[] memory) {\n    Auction[] memory sValues = new Auction[](values.length);\n\n      for (uint256 i = 0; i < values.length; i++) {\n        if (keccak256(abi.encodePacked((values[i].auctionTitle))) \n          == keccak256(abi.encodePacked((keyword)))) {\n          sValues[i] = values[i];\n        } \n      }\n      sValues = cfilter(sValues, category);\n      return sValues;\n\n  }\n\n  function cfilter(Auction[] memory values, uint256 category) private pure returns (Auction[] memory) {\n    Auction[] memory cValues = new Auction[](values.length);\n    if (category != 0) {\n      for (uint256 i = 0; i < values.length; i++) {\n        if(values[i].auctionTypes.category == category){\n          cValues[i] = values[i];\n        } \n      }\n      return cValues;\n    } else {\n      return values;\n    }\n  }\n\n  /*  sort  */\n  function sortMap(Auction[] memory arr, uint256 limit, Sort sort) private pure returns (Auction[] memory) {\n    //sort\n    Auction memory temp;\n    for(uint256 i = 0; i < limit; i++) {\n        for(uint256 j = i+1; j < limit ;j++) {\n          if (sort == Sort.NEW) {\n            if(arr[i].expiryDate > arr[j].expiryDate) {\n                temp = arr[i];\n                arr[i] = arr[j];\n                arr[j] = temp;\n            }\n          } else if (sort == Sort.END) {\n            if(arr[i].expiryDate < arr[j].expiryDate) {\n                temp = arr[i];\n                arr[i] = arr[j];\n                arr[j] = temp;\n            }\n          } else if (sort == Sort.ASC) {\n            if(arr[i].currentPrice > arr[j].currentPrice) {\n                temp = arr[i];\n                arr[i] = arr[j];\n                arr[j] = temp;\n            }\n          } else {\n            if(arr[i].currentPrice < arr[j].currentPrice) {\n                temp = arr[i];\n                arr[i] = arr[j];\n                arr[j] = temp;\n            }\n          } \n        }\n    }\n    return arr;\n  }\n\n}",
  "sourcePath": "/Users/binarywoo/project/YGBS-nft/React-Files/contracts/nft/token/NFT_Auction_Market.sol",
  "compiler": {
    "name": "solc",
    "version": "0.8.0+commit.c7dfd78e.Emscripten.clang"
  },
  "schemaVersion": "3.4.1",
  "updatedAt": "2021-12-07T07:20:15.301Z",
  "devdoc": {
    "kind": "dev",
    "methods": {
      "onERC1155BatchReceived(address,address,uint256[],uint256[],bytes)": {
        "details": "Handles the receipt of a multiple ERC1155 token types. This function is called at the end of a `safeBatchTransferFrom` after the balances have been updated. To accept the transfer(s), this must return `bytes4(keccak256(\"onERC1155BatchReceived(address,address,uint256[],uint256[],bytes)\"))` (i.e. 0xbc197c81, or its own function selector).",
        "params": {
          "data": "Additional data with no specified format",
          "from": "The address which previously owned the token",
          "ids": "An array containing ids of each token being transferred (order and length must match values array)",
          "operator": "The address which initiated the batch transfer (i.e. msg.sender)",
          "values": "An array containing amounts of each token being transferred (order and length must match ids array)"
        },
        "returns": {
          "_0": "`bytes4(keccak256(\"onERC1155BatchReceived(address,address,uint256[],uint256[],bytes)\"))` if transfer is allowed"
        }
      },
      "onERC1155Received(address,address,uint256,uint256,bytes)": {
        "details": "Handles the receipt of a single ERC1155 token type. This function is called at the end of a `safeTransferFrom` after the balance has been updated. To accept the transfer, this must return `bytes4(keccak256(\"onERC1155Received(address,address,uint256,uint256,bytes)\"))` (i.e. 0xf23a6e61, or its own function selector).",
        "params": {
          "data": "Additional data with no specified format",
          "from": "The address which previously owned the token",
          "id": "The ID of the token being transferred",
          "operator": "The address which initiated the transfer (i.e. msg.sender)",
          "value": "The amount of tokens being transferred"
        },
        "returns": {
          "_0": "`bytes4(keccak256(\"onERC1155Received(address,address,uint256,uint256,bytes)\"))` if transfer is allowed"
        }
      },
      "owner()": {
        "details": "Returns the address of the current owner."
      },
      "renounceOwnership()": {
        "details": "Leaves the contract without owner. It will not be possible to call `onlyOwner` functions anymore. Can only be called by the current owner. NOTE: Renouncing ownership will leave the contract without an owner, thereby removing any functionality that is only available to the owner."
      },
      "supportsInterface(bytes4)": {
        "details": "See {IERC165-supportsInterface}."
      },
      "transferOwnership(address)": {
        "details": "Transfers ownership of the contract to a new account (`newOwner`). Can only be called by the current owner."
      }
    },
    "title": "NFT Auction Market Sellers can choose a minimum, starting bid, an expiry time when the auction ends Before creating an auction the seller has to approve this contract for the respective token, which will be held in contract until the auction ends. bid price = price + fee  which he will be refunded in case he gets outbid. After the specified expiry date of an auction anyone can trigger the settlement  Not only will we transfer tokens to new owners, but we will also transfer sales money to sellers. All comissions will be credited to the owner / deployer of the marketplace contract.",
    "version": 1
  },
  "userdoc": {
    "kind": "user",
    "methods": {
      "cancelAuction(uint256)": {
        "notice": "Cancels an auction and returns the token to the original owner. Requires the caller to be the seller who created the auction, the auction to be open and no bids having been placed on it."
      },
      "placeBid(uint256,uint256)": {
        "notice": "Places a bid on the selected auction at the selected price Requires the provided bid price to exceed the current highest bid by at least the minBidSize. Also requires the caller to transfer the exact amount of the chosen bidPrice plus fee, to be held in escrow by the contract until the auction is settled or a higher bid is placed."
      },
      "settleAuction(uint256)": {
        "notice": "Settles an auction. If at least one bid has been placed the token will be transfered to its new owner, the seller will be credited the sale price and the contract owner will be credited the fee. If no bid has been placed on the token it will just be transfered back to its original owner."
      },
      "withdrawCredit()": {
        "notice": "Withdraws all credit of the caller Transfers all of his credit to the caller and sets the balance to 0 Fails if caller has no credit."
      }
    },
    "version": 1
  }
}