{
  "contractName": "NFT",
  "abi": [
    {
      "inputs": [
        {
          "internalType": "address",
          "name": "marketplaceAddress",
          "type": "address"
        }
      ],
      "stateMutability": "nonpayable",
      "type": "constructor"
    },
    {
      "anonymous": false,
      "inputs": [
        {
          "indexed": true,
          "internalType": "address",
          "name": "owner",
          "type": "address"
        },
        {
          "indexed": true,
          "internalType": "address",
          "name": "approved",
          "type": "address"
        },
        {
          "indexed": true,
          "internalType": "uint256",
          "name": "tokenId",
          "type": "uint256"
        }
      ],
      "name": "Approval",
      "type": "event"
    },
    {
      "anonymous": false,
      "inputs": [
        {
          "indexed": true,
          "internalType": "address",
          "name": "owner",
          "type": "address"
        },
        {
          "indexed": true,
          "internalType": "address",
          "name": "operator",
          "type": "address"
        },
        {
          "indexed": false,
          "internalType": "bool",
          "name": "approved",
          "type": "bool"
        }
      ],
      "name": "ApprovalForAll",
      "type": "event"
    },
    {
      "anonymous": false,
      "inputs": [
        {
          "indexed": false,
          "internalType": "uint256",
          "name": "nftID",
          "type": "uint256"
        }
      ],
      "name": "Burned",
      "type": "event"
    },
    {
      "anonymous": false,
      "inputs": [
        {
          "indexed": true,
          "internalType": "address",
          "name": "from",
          "type": "address"
        },
        {
          "indexed": true,
          "internalType": "address",
          "name": "to",
          "type": "address"
        },
        {
          "indexed": true,
          "internalType": "uint256",
          "name": "tokenId",
          "type": "uint256"
        }
      ],
      "name": "Transfer",
      "type": "event"
    },
    {
      "inputs": [
        {
          "internalType": "address",
          "name": "to",
          "type": "address"
        },
        {
          "internalType": "uint256",
          "name": "tokenId",
          "type": "uint256"
        }
      ],
      "name": "approve",
      "outputs": [],
      "stateMutability": "nonpayable",
      "type": "function"
    },
    {
      "inputs": [
        {
          "internalType": "address",
          "name": "owner",
          "type": "address"
        }
      ],
      "name": "balanceOf",
      "outputs": [
        {
          "internalType": "uint256",
          "name": "",
          "type": "uint256"
        }
      ],
      "stateMutability": "view",
      "type": "function"
    },
    {
      "inputs": [
        {
          "internalType": "uint256",
          "name": "tokenId",
          "type": "uint256"
        }
      ],
      "name": "getApproved",
      "outputs": [
        {
          "internalType": "address",
          "name": "",
          "type": "address"
        }
      ],
      "stateMutability": "view",
      "type": "function"
    },
    {
      "inputs": [
        {
          "internalType": "address",
          "name": "owner",
          "type": "address"
        },
        {
          "internalType": "address",
          "name": "operator",
          "type": "address"
        }
      ],
      "name": "isApprovedForAll",
      "outputs": [
        {
          "internalType": "bool",
          "name": "",
          "type": "bool"
        }
      ],
      "stateMutability": "view",
      "type": "function"
    },
    {
      "inputs": [],
      "name": "name",
      "outputs": [
        {
          "internalType": "string",
          "name": "",
          "type": "string"
        }
      ],
      "stateMutability": "view",
      "type": "function"
    },
    {
      "inputs": [
        {
          "internalType": "uint256",
          "name": "tokenId",
          "type": "uint256"
        }
      ],
      "name": "ownerOf",
      "outputs": [
        {
          "internalType": "address",
          "name": "",
          "type": "address"
        }
      ],
      "stateMutability": "view",
      "type": "function"
    },
    {
      "inputs": [
        {
          "internalType": "address",
          "name": "from",
          "type": "address"
        },
        {
          "internalType": "address",
          "name": "to",
          "type": "address"
        },
        {
          "internalType": "uint256",
          "name": "tokenId",
          "type": "uint256"
        }
      ],
      "name": "safeTransferFrom",
      "outputs": [],
      "stateMutability": "nonpayable",
      "type": "function"
    },
    {
      "inputs": [
        {
          "internalType": "address",
          "name": "from",
          "type": "address"
        },
        {
          "internalType": "address",
          "name": "to",
          "type": "address"
        },
        {
          "internalType": "uint256",
          "name": "tokenId",
          "type": "uint256"
        },
        {
          "internalType": "bytes",
          "name": "_data",
          "type": "bytes"
        }
      ],
      "name": "safeTransferFrom",
      "outputs": [],
      "stateMutability": "nonpayable",
      "type": "function"
    },
    {
      "inputs": [
        {
          "internalType": "address",
          "name": "operator",
          "type": "address"
        },
        {
          "internalType": "bool",
          "name": "approved",
          "type": "bool"
        }
      ],
      "name": "setApprovalForAll",
      "outputs": [],
      "stateMutability": "nonpayable",
      "type": "function"
    },
    {
      "inputs": [
        {
          "internalType": "bytes4",
          "name": "interfaceId",
          "type": "bytes4"
        }
      ],
      "name": "supportsInterface",
      "outputs": [
        {
          "internalType": "bool",
          "name": "",
          "type": "bool"
        }
      ],
      "stateMutability": "view",
      "type": "function"
    },
    {
      "inputs": [],
      "name": "symbol",
      "outputs": [
        {
          "internalType": "string",
          "name": "",
          "type": "string"
        }
      ],
      "stateMutability": "view",
      "type": "function"
    },
    {
      "inputs": [
        {
          "internalType": "uint256",
          "name": "tokenId",
          "type": "uint256"
        }
      ],
      "name": "tokenURI",
      "outputs": [
        {
          "internalType": "string",
          "name": "",
          "type": "string"
        }
      ],
      "stateMutability": "view",
      "type": "function"
    },
    {
      "inputs": [
        {
          "internalType": "address",
          "name": "from",
          "type": "address"
        },
        {
          "internalType": "address",
          "name": "to",
          "type": "address"
        },
        {
          "internalType": "uint256",
          "name": "tokenId",
          "type": "uint256"
        }
      ],
      "name": "transferFrom",
      "outputs": [],
      "stateMutability": "nonpayable",
      "type": "function"
    },
    {
      "inputs": [
        {
          "internalType": "string",
          "name": "tokenURI",
          "type": "string"
        }
      ],
      "name": "mintNFT",
      "outputs": [
        {
          "internalType": "uint256",
          "name": "",
          "type": "uint256"
        }
      ],
      "stateMutability": "nonpayable",
      "type": "function"
    },
    {
      "inputs": [
        {
          "internalType": "uint256",
          "name": "_tokenId",
          "type": "uint256"
        }
      ],
      "name": "removeNFT",
      "outputs": [],
      "stateMutability": "nonpayable",
      "type": "function"
    }
  ],
  "bytecode": "0x60806040523480156200001157600080fd5b5060405162002fc338038062002fc38339818101604052810190620000379190620001e6565b6040518060400160405280600581526020017f544553544e0000000000000000000000000000000000000000000000000000008152506040518060400160405280600381526020017f54535400000000000000000000000000000000000000000000000000000000008152508160009080519060200190620000bb9291906200011f565b508060019080519060200190620000d49291906200011f565b50505080600860006101000a81548173ffffffffffffffffffffffffffffffffffffffff021916908373ffffffffffffffffffffffffffffffffffffffff16021790555050620002c5565b8280546200012d9062000246565b90600052602060002090601f0160209004810192826200015157600085556200019d565b82601f106200016c57805160ff19168380011785556200019d565b828001600101855582156200019d579182015b828111156200019c5782518255916020019190600101906200017f565b5b509050620001ac9190620001b0565b5090565b5b80821115620001cb576000816000905550600101620001b1565b5090565b600081519050620001e081620002ab565b92915050565b600060208284031215620001f957600080fd5b60006200020984828501620001cf565b91505092915050565b60006200021f8262000226565b9050919050565b600073ffffffffffffffffffffffffffffffffffffffff82169050919050565b600060028204905060018216806200025f57607f821691505b602082108114156200027657620002756200027c565b5b50919050565b7f4e487b7100000000000000000000000000000000000000000000000000000000600052602260045260246000fd5b620002b68162000212565b8114620002c257600080fd5b50565b612cee80620002d56000396000f3fe608060405234801561001057600080fd5b50600436106100f55760003560e01c806370a0823111610097578063c87b56dd11610066578063c87b56dd14610282578063e985e9c5146102b2578063ee4739cb146102e2578063fb37e883146102fe576100f5565b806370a08231146101fc57806395d89b411461022c578063a22cb4651461024a578063b88d4fde14610266576100f5565b8063095ea7b3116100d3578063095ea7b31461017857806323b872dd1461019457806342842e0e146101b05780636352211e146101cc576100f5565b806301ffc9a7146100fa57806306fdde031461012a578063081812fc14610148575b600080fd5b610114600480360381019061010f9190611e41565b61032e565b6040516101219190612646565b60405180910390f35b610132610410565b60405161013f9190612661565b60405180910390f35b610162600480360381019061015d9190611ed4565b6104a2565b60405161016f91906125df565b60405180910390f35b610192600480360381019061018d9190611e05565b610527565b005b6101ae60048036038101906101a99190611cff565b61063f565b005b6101ca60048036038101906101c59190611cff565b61069f565b005b6101e660048036038101906101e19190611ed4565b6106bf565b6040516101f391906125df565b60405180910390f35b61021660048036038101906102119190611c9a565b610771565b6040516102239190612883565b60405180910390f35b610234610829565b6040516102419190612661565b60405180910390f35b610264600480360381019061025f9190611dc9565b6108bb565b005b610280600480360381019061027b9190611d4e565b6108d1565b005b61029c60048036038101906102979190611ed4565b610933565b6040516102a99190612661565b60405180910390f35b6102cc60048036038101906102c79190611cc3565b610a85565b6040516102d99190612646565b60405180910390f35b6102fc60048036038101906102f79190611ed4565b610b19565b005b61031860048036038101906103139190611e93565b610b9c565b6040516103259190612883565b60405180910390f35b60007f80ac58cd000000000000000000000000000000000000000000000000000000007bffffffffffffffffffffffffffffffffffffffffffffffffffffffff1916827bffffffffffffffffffffffffffffffffffffffffffffffffffffffff191614806103f957507f5b5e139f000000000000000000000000000000000000000000000000000000007bffffffffffffffffffffffffffffffffffffffffffffffffffffffff1916827bffffffffffffffffffffffffffffffffffffffffffffffffffffffff1916145b80610409575061040882610c00565b5b9050919050565b60606000805461041f90612ae3565b80601f016020809104026020016040519081016040528092919081815260200182805461044b90612ae3565b80156104985780601f1061046d57610100808354040283529160200191610498565b820191906000526020600020905b81548152906001019060200180831161047b57829003601f168201915b5050505050905090565b60006104ad82610c6a565b6104ec576040517f08c379a00000000000000000000000000000000000000000000000000000000081526004016104e3906127e3565b60405180910390fd5b6004600083815260200190815260200160002060009054906101000a900473ffffffffffffffffffffffffffffffffffffffff169050919050565b6000610532826106bf565b90508073ffffffffffffffffffffffffffffffffffffffff168373ffffffffffffffffffffffffffffffffffffffff1614156105a3576040517f08c379a000000000000000000000000000000000000000000000000000000000815260040161059a90612843565b60405180910390fd5b8073ffffffffffffffffffffffffffffffffffffffff166105c2610cd6565b73ffffffffffffffffffffffffffffffffffffffff1614806105f157506105f0816105eb610cd6565b610a85565b5b610630576040517f08c379a000000000000000000000000000000000000000000000000000000000815260040161062790612723565b60405180910390fd5b61063a8383610cde565b505050565b61065061064a610cd6565b82610d97565b61068f576040517f08c379a000000000000000000000000000000000000000000000000000000000815260040161068690612863565b60405180910390fd5b61069a838383610e75565b505050565b6106ba838383604051806020016040528060008152506108d1565b505050565b6000806002600084815260200190815260200160002060009054906101000a900473ffffffffffffffffffffffffffffffffffffffff169050600073ffffffffffffffffffffffffffffffffffffffff168173ffffffffffffffffffffffffffffffffffffffff161415610768576040517f08c379a000000000000000000000000000000000000000000000000000000000815260040161075f90612763565b60405180910390fd5b80915050919050565b60008073ffffffffffffffffffffffffffffffffffffffff168273ffffffffffffffffffffffffffffffffffffffff1614156107e2576040517f08c379a00000000000000000000000000000000000000000000000000000000081526004016107d990612743565b60405180910390fd5b600360008373ffffffffffffffffffffffffffffffffffffffff1673ffffffffffffffffffffffffffffffffffffffff168152602001908152602001600020549050919050565b60606001805461083890612ae3565b80601f016020809104026020016040519081016040528092919081815260200182805461086490612ae3565b80156108b15780601f10610886576101008083540402835291602001916108b1565b820191906000526020600020905b81548152906001019060200180831161089457829003601f168201915b5050505050905090565b6108cd6108c6610cd6565b83836110d1565b5050565b6108e26108dc610cd6565b83610d97565b610921576040517f08c379a000000000000000000000000000000000000000000000000000000000815260040161091890612863565b60405180910390fd5b61092d8484848461123e565b50505050565b606061093e82610c6a565b61097d576040517f08c379a0000000000000000000000000000000000000000000000000000000008152600401610974906127c3565b60405180910390fd5b600060066000848152602001908152602001600020805461099d90612ae3565b80601f01602080910402602001604051908101604052809291908181526020018280546109c990612ae3565b8015610a165780601f106109eb57610100808354040283529160200191610a16565b820191906000526020600020905b8154815290600101906020018083116109f957829003601f168201915b505050505090506000610a2761129a565b9050600081511415610a3d578192505050610a80565b600082511115610a72578082604051602001610a5a9291906125bb565b60405160208183030381529060405292505050610a80565b610a7b846112b1565b925050505b919050565b6000600560008473ffffffffffffffffffffffffffffffffffffffff1673ffffffffffffffffffffffffffffffffffffffff16815260200190815260200160002060008373ffffffffffffffffffffffffffffffffffffffff1673ffffffffffffffffffffffffffffffffffffffff16815260200190815260200160002060009054906101000a900460ff16905092915050565b3373ffffffffffffffffffffffffffffffffffffffff16610b39826106bf565b73ffffffffffffffffffffffffffffffffffffffff1614610b5957600080fd5b610b6281611358565b7fd83c63197e8e676d80ab0122beba9a9d20f3828839e9a1d6fe81d242e9cd7e6e81604051610b919190612883565b60405180910390a150565b6000610ba860076113ab565b6000610bb460076113c1565b9050610bc033826113cf565b610bca818461159d565b610bf7600860009054906101000a900473ffffffffffffffffffffffffffffffffffffffff1660016108bb565b80915050919050565b60007f01ffc9a7000000000000000000000000000000000000000000000000000000007bffffffffffffffffffffffffffffffffffffffffffffffffffffffff1916827bffffffffffffffffffffffffffffffffffffffffffffffffffffffff1916149050919050565b60008073ffffffffffffffffffffffffffffffffffffffff166002600084815260200190815260200160002060009054906101000a900473ffffffffffffffffffffffffffffffffffffffff1673ffffffffffffffffffffffffffffffffffffffff1614159050919050565b600033905090565b816004600083815260200190815260200160002060006101000a81548173ffffffffffffffffffffffffffffffffffffffff021916908373ffffffffffffffffffffffffffffffffffffffff160217905550808273ffffffffffffffffffffffffffffffffffffffff16610d51836106bf565b73ffffffffffffffffffffffffffffffffffffffff167f8c5be1e5ebec7d5bd14f71427d1e84f3dd0314c0f7b2291e5b200ac8c7c3b92560405160405180910390a45050565b6000610da282610c6a565b610de1576040517f08c379a0000000000000000000000000000000000000000000000000000000008152600401610dd890612703565b60405180910390fd5b6000610dec836106bf565b90508073ffffffffffffffffffffffffffffffffffffffff168473ffffffffffffffffffffffffffffffffffffffff161480610e5b57508373ffffffffffffffffffffffffffffffffffffffff16610e43846104a2565b73ffffffffffffffffffffffffffffffffffffffff16145b80610e6c5750610e6b8185610a85565b5b91505092915050565b8273ffffffffffffffffffffffffffffffffffffffff16610e95826106bf565b73ffffffffffffffffffffffffffffffffffffffff1614610eeb576040517f08c379a0000000000000000000000000000000000000000000000000000000008152600401610ee290612803565b60405180910390fd5b600073ffffffffffffffffffffffffffffffffffffffff168273ffffffffffffffffffffffffffffffffffffffff161415610f5b576040517f08c379a0000000000000000000000000000000000000000000000000000000008152600401610f52906126c3565b60405180910390fd5b610f66838383611611565b610f71600082610cde565b6001600360008573ffffffffffffffffffffffffffffffffffffffff1673ffffffffffffffffffffffffffffffffffffffff1681526020019081526020016000206000828254610fc191906129f9565b925050819055506001600360008473ffffffffffffffffffffffffffffffffffffffff1673ffffffffffffffffffffffffffffffffffffffff16815260200190815260200160002060008282546110189190612972565b92505081905550816002600083815260200190815260200160002060006101000a81548173ffffffffffffffffffffffffffffffffffffffff021916908373ffffffffffffffffffffffffffffffffffffffff160217905550808273ffffffffffffffffffffffffffffffffffffffff168473ffffffffffffffffffffffffffffffffffffffff167fddf252ad1be2c89b69c2b068fc378daa952ba7f163c4a11628f55a4df523b3ef60405160405180910390a4505050565b8173ffffffffffffffffffffffffffffffffffffffff168373ffffffffffffffffffffffffffffffffffffffff161415611140576040517f08c379a0000000000000000000000000000000000000000000000000000000008152600401611137906126e3565b60405180910390fd5b80600560008573ffffffffffffffffffffffffffffffffffffffff1673ffffffffffffffffffffffffffffffffffffffff16815260200190815260200160002060008473ffffffffffffffffffffffffffffffffffffffff1673ffffffffffffffffffffffffffffffffffffffff16815260200190815260200160002060006101000a81548160ff0219169083151502179055508173ffffffffffffffffffffffffffffffffffffffff168373ffffffffffffffffffffffffffffffffffffffff167f17307eab39ab6107e8899845ad3d59bd9653f200f220920489ca2b5937696c31836040516112319190612646565b60405180910390a3505050565b611249848484610e75565b61125584848484611616565b611294576040517f08c379a000000000000000000000000000000000000000000000000000000000815260040161128b90612683565b60405180910390fd5b50505050565b606060405180602001604052806000815250905090565b60606112bc82610c6a565b6112fb576040517f08c379a00000000000000000000000000000000000000000000000000000000081526004016112f290612823565b60405180910390fd5b600061130561129a565b905060008151116113255760405180602001604052806000815250611350565b8061132f846117ad565b6040516020016113409291906125bb565b6040516020818303038152906040525b915050919050565b6113618161195a565b600060066000838152602001908152602001600020805461138190612ae3565b9050146113a8576006600082815260200190815260200160002060006113a79190611a7e565b5b50565b6001816000016000828254019250508190555050565b600081600001549050919050565b600073ffffffffffffffffffffffffffffffffffffffff168273ffffffffffffffffffffffffffffffffffffffff16141561143f576040517f08c379a0000000000000000000000000000000000000000000000000000000008152600401611436906127a3565b60405180910390fd5b61144881610c6a565b15611488576040517f08c379a000000000000000000000000000000000000000000000000000000000815260040161147f906126a3565b60405180910390fd5b61149460008383611611565b6001600360008473ffffffffffffffffffffffffffffffffffffffff1673ffffffffffffffffffffffffffffffffffffffff16815260200190815260200160002060008282546114e49190612972565b92505081905550816002600083815260200190815260200160002060006101000a81548173ffffffffffffffffffffffffffffffffffffffff021916908373ffffffffffffffffffffffffffffffffffffffff160217905550808273ffffffffffffffffffffffffffffffffffffffff16600073ffffffffffffffffffffffffffffffffffffffff167fddf252ad1be2c89b69c2b068fc378daa952ba7f163c4a11628f55a4df523b3ef60405160405180910390a45050565b6115a682610c6a565b6115e5576040517f08c379a00000000000000000000000000000000000000000000000000000000081526004016115dc90612783565b60405180910390fd5b8060066000848152602001908152602001600020908051906020019061160c929190611abe565b505050565b505050565b60006116378473ffffffffffffffffffffffffffffffffffffffff16611a6b565b156117a0578373ffffffffffffffffffffffffffffffffffffffff1663150b7a02611660610cd6565b8786866040518563ffffffff1660e01b815260040161168294939291906125fa565b602060405180830381600087803b15801561169c57600080fd5b505af19250505080156116cd57506040513d601f19601f820116820180604052508101906116ca9190611e6a565b60015b611750573d80600081146116fd576040519150601f19603f3d011682016040523d82523d6000602084013e611702565b606091505b50600081511415611748576040517f08c379a000000000000000000000000000000000000000000000000000000000815260040161173f90612683565b60405180910390fd5b805181602001fd5b63150b7a0260e01b7bffffffffffffffffffffffffffffffffffffffffffffffffffffffff1916817bffffffffffffffffffffffffffffffffffffffffffffffffffffffff1916149150506117a5565b600190505b949350505050565b606060008214156117f5576040518060400160405280600181526020017f30000000000000000000000000000000000000000000000000000000000000008152509050611955565b600082905060005b6000821461182757808061181090612b15565b915050600a8261182091906129c8565b91506117fd565b60008167ffffffffffffffff811115611869577f4e487b7100000000000000000000000000000000000000000000000000000000600052604160045260246000fd5b6040519080825280601f01601f19166020018201604052801561189b5781602001600182028036833780820191505090505b5090505b6000851461194e576001826118b491906129f9565b9150600a856118c39190612b5e565b60306118cf9190612972565b60f81b81838151811061190b577f4e487b7100000000000000000000000000000000000000000000000000000000600052603260045260246000fd5b60200101907effffffffffffffffffffffffffffffffffffffffffffffffffffffffffffff1916908160001a905350600a8561194791906129c8565b945061189f565b8093505050505b919050565b6000611965826106bf565b905061197381600084611611565b61197e600083610cde565b6001600360008373ffffffffffffffffffffffffffffffffffffffff1673ffffffffffffffffffffffffffffffffffffffff16815260200190815260200160002060008282546119ce91906129f9565b925050819055506002600083815260200190815260200160002060006101000a81549073ffffffffffffffffffffffffffffffffffffffff021916905581600073ffffffffffffffffffffffffffffffffffffffff168273ffffffffffffffffffffffffffffffffffffffff167fddf252ad1be2c89b69c2b068fc378daa952ba7f163c4a11628f55a4df523b3ef60405160405180910390a45050565b600080823b905060008111915050919050565b508054611a8a90612ae3565b6000825580601f10611a9c5750611abb565b601f016020900490600052602060002090810190611aba9190611b44565b5b50565b828054611aca90612ae3565b90600052602060002090601f016020900481019282611aec5760008555611b33565b82601f10611b0557805160ff1916838001178555611b33565b82800160010185558215611b33579182015b82811115611b32578251825591602001919060010190611b17565b5b509050611b409190611b44565b5090565b5b80821115611b5d576000816000905550600101611b45565b5090565b6000611b74611b6f846128cf565b61289e565b905082815260208101848484011115611b8c57600080fd5b611b97848285612aa1565b509392505050565b6000611bb2611bad846128ff565b61289e565b905082815260208101848484011115611bca57600080fd5b611bd5848285612aa1565b509392505050565b600081359050611bec81612c5c565b92915050565b600081359050611c0181612c73565b92915050565b600081359050611c1681612c8a565b92915050565b600081519050611c2b81612c8a565b92915050565b600082601f830112611c4257600080fd5b8135611c52848260208601611b61565b91505092915050565b600082601f830112611c6c57600080fd5b8135611c7c848260208601611b9f565b91505092915050565b600081359050611c9481612ca1565b92915050565b600060208284031215611cac57600080fd5b6000611cba84828501611bdd565b91505092915050565b60008060408385031215611cd657600080fd5b6000611ce485828601611bdd565b9250506020611cf585828601611bdd565b9150509250929050565b600080600060608486031215611d1457600080fd5b6000611d2286828701611bdd565b9350506020611d3386828701611bdd565b9250506040611d4486828701611c85565b9150509250925092565b60008060008060808587031215611d6457600080fd5b6000611d7287828801611bdd565b9450506020611d8387828801611bdd565b9350506040611d9487828801611c85565b925050606085013567ffffffffffffffff811115611db157600080fd5b611dbd87828801611c31565b91505092959194509250565b60008060408385031215611ddc57600080fd5b6000611dea85828601611bdd565b9250506020611dfb85828601611bf2565b9150509250929050565b60008060408385031215611e1857600080fd5b6000611e2685828601611bdd565b9250506020611e3785828601611c85565b9150509250929050565b600060208284031215611e5357600080fd5b6000611e6184828501611c07565b91505092915050565b600060208284031215611e7c57600080fd5b6000611e8a84828501611c1c565b91505092915050565b600060208284031215611ea557600080fd5b600082013567ffffffffffffffff811115611ebf57600080fd5b611ecb84828501611c5b565b91505092915050565b600060208284031215611ee657600080fd5b6000611ef484828501611c85565b91505092915050565b611f0681612a2d565b82525050565b611f1581612a3f565b82525050565b6000611f268261292f565b611f308185612945565b9350611f40818560208601612ab0565b611f4981612c4b565b840191505092915050565b6000611f5f8261293a565b611f698185612956565b9350611f79818560208601612ab0565b611f8281612c4b565b840191505092915050565b6000611f988261293a565b611fa28185612967565b9350611fb2818560208601612ab0565b80840191505092915050565b6000611fcb603283612956565b91507f4552433732313a207472616e7366657220746f206e6f6e20455243373231526560008301527f63656976657220696d706c656d656e74657200000000000000000000000000006020830152604082019050919050565b6000612031601c83612956565b91507f4552433732313a20746f6b656e20616c7265616479206d696e746564000000006000830152602082019050919050565b6000612071602483612956565b91507f4552433732313a207472616e7366657220746f20746865207a65726f2061646460008301527f72657373000000000000000000000000000000000000000000000000000000006020830152604082019050919050565b60006120d7601983612956565b91507f4552433732313a20617070726f766520746f2063616c6c6572000000000000006000830152602082019050919050565b6000612117602c83612956565b91507f4552433732313a206f70657261746f7220717565727920666f72206e6f6e657860008301527f697374656e7420746f6b656e00000000000000000000000000000000000000006020830152604082019050919050565b600061217d603883612956565b91507f4552433732313a20617070726f76652063616c6c6572206973206e6f74206f7760008301527f6e6572206e6f7220617070726f76656420666f7220616c6c00000000000000006020830152604082019050919050565b60006121e3602a83612956565b91507f4552433732313a2062616c616e636520717565727920666f7220746865207a6560008301527f726f2061646472657373000000000000000000000000000000000000000000006020830152604082019050919050565b6000612249602983612956565b91507f4552433732313a206f776e657220717565727920666f72206e6f6e657869737460008301527f656e7420746f6b656e00000000000000000000000000000000000000000000006020830152604082019050919050565b60006122af602e83612956565b91507f45524337323155524953746f726167653a2055524920736574206f66206e6f6e60008301527f6578697374656e7420746f6b656e0000000000000000000000000000000000006020830152604082019050919050565b6000612315602083612956565b91507f4552433732313a206d696e7420746f20746865207a65726f20616464726573736000830152602082019050919050565b6000612355603183612956565b91507f45524337323155524953746f726167653a2055524920717565727920666f722060008301527f6e6f6e6578697374656e7420746f6b656e0000000000000000000000000000006020830152604082019050919050565b60006123bb602c83612956565b91507f4552433732313a20617070726f76656420717565727920666f72206e6f6e657860008301527f697374656e7420746f6b656e00000000000000000000000000000000000000006020830152604082019050919050565b6000612421602983612956565b91507f4552433732313a207472616e73666572206f6620746f6b656e2074686174206960008301527f73206e6f74206f776e00000000000000000000000000000000000000000000006020830152604082019050919050565b6000612487602f83612956565b91507f4552433732314d657461646174613a2055524920717565727920666f72206e6f60008301527f6e6578697374656e7420746f6b656e00000000000000000000000000000000006020830152604082019050919050565b60006124ed602183612956565b91507f4552433732313a20617070726f76616c20746f2063757272656e74206f776e6560008301527f72000000000000000000000000000000000000000000000000000000000000006020830152604082019050919050565b6000612553603183612956565b91507f4552433732313a207472616e736665722063616c6c6572206973206e6f74206f60008301527f776e6572206e6f7220617070726f7665640000000000000000000000000000006020830152604082019050919050565b6125b581612a97565b82525050565b60006125c78285611f8d565b91506125d38284611f8d565b91508190509392505050565b60006020820190506125f46000830184611efd565b92915050565b600060808201905061260f6000830187611efd565b61261c6020830186611efd565b61262960408301856125ac565b818103606083015261263b8184611f1b565b905095945050505050565b600060208201905061265b6000830184611f0c565b92915050565b6000602082019050818103600083015261267b8184611f54565b905092915050565b6000602082019050818103600083015261269c81611fbe565b9050919050565b600060208201905081810360008301526126bc81612024565b9050919050565b600060208201905081810360008301526126dc81612064565b9050919050565b600060208201905081810360008301526126fc816120ca565b9050919050565b6000602082019050818103600083015261271c8161210a565b9050919050565b6000602082019050818103600083015261273c81612170565b9050919050565b6000602082019050818103600083015261275c816121d6565b9050919050565b6000602082019050818103600083015261277c8161223c565b9050919050565b6000602082019050818103600083015261279c816122a2565b9050919050565b600060208201905081810360008301526127bc81612308565b9050919050565b600060208201905081810360008301526127dc81612348565b9050919050565b600060208201905081810360008301526127fc816123ae565b9050919050565b6000602082019050818103600083015261281c81612414565b9050919050565b6000602082019050818103600083015261283c8161247a565b9050919050565b6000602082019050818103600083015261285c816124e0565b9050919050565b6000602082019050818103600083015261287c81612546565b9050919050565b600060208201905061289860008301846125ac565b92915050565b6000604051905081810181811067ffffffffffffffff821117156128c5576128c4612c1c565b5b8060405250919050565b600067ffffffffffffffff8211156128ea576128e9612c1c565b5b601f19601f8301169050602081019050919050565b600067ffffffffffffffff82111561291a57612919612c1c565b5b601f19601f8301169050602081019050919050565b600081519050919050565b600081519050919050565b600082825260208201905092915050565b600082825260208201905092915050565b600081905092915050565b600061297d82612a97565b915061298883612a97565b9250827fffffffffffffffffffffffffffffffffffffffffffffffffffffffffffffffff038211156129bd576129bc612b8f565b5b828201905092915050565b60006129d382612a97565b91506129de83612a97565b9250826129ee576129ed612bbe565b5b828204905092915050565b6000612a0482612a97565b9150612a0f83612a97565b925082821015612a2257612a21612b8f565b5b828203905092915050565b6000612a3882612a77565b9050919050565b60008115159050919050565b60007fffffffff0000000000000000000000000000000000000000000000000000000082169050919050565b600073ffffffffffffffffffffffffffffffffffffffff82169050919050565b6000819050919050565b82818337600083830152505050565b60005b83811015612ace578082015181840152602081019050612ab3565b83811115612add576000848401525b50505050565b60006002820490506001821680612afb57607f821691505b60208210811415612b0f57612b0e612bed565b5b50919050565b6000612b2082612a97565b91507fffffffffffffffffffffffffffffffffffffffffffffffffffffffffffffffff821415612b5357612b52612b8f565b5b600182019050919050565b6000612b6982612a97565b9150612b7483612a97565b925082612b8457612b83612bbe565b5b828206905092915050565b7f4e487b7100000000000000000000000000000000000000000000000000000000600052601160045260246000fd5b7f4e487b7100000000000000000000000000000000000000000000000000000000600052601260045260246000fd5b7f4e487b7100000000000000000000000000000000000000000000000000000000600052602260045260246000fd5b7f4e487b7100000000000000000000000000000000000000000000000000000000600052604160045260246000fd5b6000601f19601f8301169050919050565b612c6581612a2d565b8114612c7057600080fd5b50565b612c7c81612a3f565b8114612c8757600080fd5b50565b612c9381612a4b565b8114612c9e57600080fd5b50565b612caa81612a97565b8114612cb557600080fd5b5056fea2646970667358221220c18f544f526dd8824bc35268407fb3104e3f95e76a56f4c0565b7d250652b7d464736f6c63430008000033",
  "immutableReferences": {},
  "source": "\n// SPDX-License-Identifier: MIT\n\npragma solidity ^0.8.0;\n\nimport \"@openzeppelin/contracts/token/ERC721/ERC721.sol\";\nimport \"@openzeppelin/contracts/utils/Counters.sol\";\nimport \"@openzeppelin/contracts/token/ERC721/extensions/ERC721URIStorage.sol\";\n\ncontract NFT is ERC721URIStorage {\n    using Counters for Counters.Counter;\n    Counters.Counter private _tokenIds;\n    address contractAddress;\n\n    constructor(address marketplaceAddress) ERC721(\"TESTN\", \"TST\") {\n        contractAddress = marketplaceAddress;\n    }\n    event Burned(uint256 nftID);\n\n\n    function mintNFT(string memory tokenURI)\n        public\n        returns (uint256)\n    {\n        _tokenIds.increment();\n        uint256 newItemId = _tokenIds.current();\n\n        _mint(msg.sender, newItemId);\n        _setTokenURI(newItemId, tokenURI);\n        setApprovalForAll(contractAddress, true);\n\n        return newItemId;\n    }\n    //burn nft\n    function removeNFT(uint256 _tokenId) public {\n        require(ownerOf(_tokenId) == msg.sender);\n            \n        _burn(_tokenId);\n        emit Burned(_tokenId);\n\n  }\n}\n",
  "sourcePath": "/Users/binarywoo/project/YGBS-nft/React-Files/contracts/nft/token/NFT.sol",
  "compiler": {
    "name": "solc",
    "version": "0.8.0+commit.c7dfd78e.Emscripten.clang"
  },
  "schemaVersion": "3.4.1",
  "updatedAt": "2021-12-07T07:20:15.294Z",
  "devdoc": {
    "kind": "dev",
    "methods": {
      "approve(address,uint256)": {
        "details": "See {IERC721-approve}."
      },
      "balanceOf(address)": {
        "details": "See {IERC721-balanceOf}."
      },
      "getApproved(uint256)": {
        "details": "See {IERC721-getApproved}."
      },
      "isApprovedForAll(address,address)": {
        "details": "See {IERC721-isApprovedForAll}."
      },
      "name()": {
        "details": "See {IERC721Metadata-name}."
      },
      "ownerOf(uint256)": {
        "details": "See {IERC721-ownerOf}."
      },
      "safeTransferFrom(address,address,uint256)": {
        "details": "See {IERC721-safeTransferFrom}."
      },
      "safeTransferFrom(address,address,uint256,bytes)": {
        "details": "See {IERC721-safeTransferFrom}."
      },
      "setApprovalForAll(address,bool)": {
        "details": "See {IERC721-setApprovalForAll}."
      },
      "supportsInterface(bytes4)": {
        "details": "See {IERC165-supportsInterface}."
      },
      "symbol()": {
        "details": "See {IERC721Metadata-symbol}."
      },
      "tokenURI(uint256)": {
        "details": "See {IERC721Metadata-tokenURI}."
      },
      "transferFrom(address,address,uint256)": {
        "details": "See {IERC721-transferFrom}."
      }
    },
    "version": 1
  },
  "userdoc": {
    "kind": "user",
    "methods": {},
    "version": 1
  }
}