{
  "contractName": "NFT",
  "abi": [
    {
      "inputs": [],
      "stateMutability": "nonpayable",
      "type": "constructor"
    },
    {
      "anonymous": false,
      "inputs": [
        {
          "indexed": true,
          "internalType": "address",
          "name": "owner",
          "type": "address"
        },
        {
          "indexed": true,
          "internalType": "address",
          "name": "approved",
          "type": "address"
        },
        {
          "indexed": true,
          "internalType": "uint256",
          "name": "tokenId",
          "type": "uint256"
        }
      ],
      "name": "Approval",
      "type": "event"
    },
    {
      "anonymous": false,
      "inputs": [
        {
          "indexed": true,
          "internalType": "address",
          "name": "owner",
          "type": "address"
        },
        {
          "indexed": true,
          "internalType": "address",
          "name": "operator",
          "type": "address"
        },
        {
          "indexed": false,
          "internalType": "bool",
          "name": "approved",
          "type": "bool"
        }
      ],
      "name": "ApprovalForAll",
      "type": "event"
    },
    {
      "anonymous": false,
      "inputs": [
        {
          "indexed": false,
          "internalType": "uint256",
          "name": "nftID",
          "type": "uint256"
        }
      ],
      "name": "Burned",
      "type": "event"
    },
    {
      "anonymous": false,
      "inputs": [
        {
          "indexed": true,
          "internalType": "address",
          "name": "previousOwner",
          "type": "address"
        },
        {
          "indexed": true,
          "internalType": "address",
          "name": "newOwner",
          "type": "address"
        }
      ],
      "name": "OwnershipTransferred",
      "type": "event"
    },
    {
      "anonymous": false,
      "inputs": [
        {
          "indexed": true,
          "internalType": "address",
          "name": "from",
          "type": "address"
        },
        {
          "indexed": true,
          "internalType": "address",
          "name": "to",
          "type": "address"
        },
        {
          "indexed": true,
          "internalType": "uint256",
          "name": "tokenId",
          "type": "uint256"
        }
      ],
      "name": "Transfer",
      "type": "event"
    },
    {
      "inputs": [
        {
          "internalType": "address",
          "name": "to",
          "type": "address"
        },
        {
          "internalType": "uint256",
          "name": "tokenId",
          "type": "uint256"
        }
      ],
      "name": "approve",
      "outputs": [],
      "stateMutability": "nonpayable",
      "type": "function"
    },
    {
      "inputs": [
        {
          "internalType": "address",
          "name": "owner",
          "type": "address"
        }
      ],
      "name": "balanceOf",
      "outputs": [
        {
          "internalType": "uint256",
          "name": "",
          "type": "uint256"
        }
      ],
      "stateMutability": "view",
      "type": "function",
      "constant": true
    },
    {
      "inputs": [
        {
          "internalType": "uint256",
          "name": "tokenId",
          "type": "uint256"
        }
      ],
      "name": "getApproved",
      "outputs": [
        {
          "internalType": "address",
          "name": "",
          "type": "address"
        }
      ],
      "stateMutability": "view",
      "type": "function",
      "constant": true
    },
    {
      "inputs": [
        {
          "internalType": "address",
          "name": "owner",
          "type": "address"
        },
        {
          "internalType": "address",
          "name": "operator",
          "type": "address"
        }
      ],
      "name": "isApprovedForAll",
      "outputs": [
        {
          "internalType": "bool",
          "name": "",
          "type": "bool"
        }
      ],
      "stateMutability": "view",
      "type": "function",
      "constant": true
    },
    {
      "inputs": [],
      "name": "name",
      "outputs": [
        {
          "internalType": "string",
          "name": "",
          "type": "string"
        }
      ],
      "stateMutability": "view",
      "type": "function",
      "constant": true
    },
    {
      "inputs": [],
      "name": "owner",
      "outputs": [
        {
          "internalType": "address",
          "name": "",
          "type": "address"
        }
      ],
      "stateMutability": "view",
      "type": "function",
      "constant": true
    },
    {
      "inputs": [
        {
          "internalType": "uint256",
          "name": "tokenId",
          "type": "uint256"
        }
      ],
      "name": "ownerOf",
      "outputs": [
        {
          "internalType": "address",
          "name": "",
          "type": "address"
        }
      ],
      "stateMutability": "view",
      "type": "function",
      "constant": true
    },
    {
      "inputs": [],
      "name": "renounceOwnership",
      "outputs": [],
      "stateMutability": "nonpayable",
      "type": "function"
    },
    {
      "inputs": [
        {
          "internalType": "address",
          "name": "from",
          "type": "address"
        },
        {
          "internalType": "address",
          "name": "to",
          "type": "address"
        },
        {
          "internalType": "uint256",
          "name": "tokenId",
          "type": "uint256"
        }
      ],
      "name": "safeTransferFrom",
      "outputs": [],
      "stateMutability": "nonpayable",
      "type": "function"
    },
    {
      "inputs": [
        {
          "internalType": "address",
          "name": "from",
          "type": "address"
        },
        {
          "internalType": "address",
          "name": "to",
          "type": "address"
        },
        {
          "internalType": "uint256",
          "name": "tokenId",
          "type": "uint256"
        },
        {
          "internalType": "bytes",
          "name": "_data",
          "type": "bytes"
        }
      ],
      "name": "safeTransferFrom",
      "outputs": [],
      "stateMutability": "nonpayable",
      "type": "function"
    },
    {
      "inputs": [
        {
          "internalType": "address",
          "name": "operator",
          "type": "address"
        },
        {
          "internalType": "bool",
          "name": "approved",
          "type": "bool"
        }
      ],
      "name": "setApprovalForAll",
      "outputs": [],
      "stateMutability": "nonpayable",
      "type": "function"
    },
    {
      "inputs": [],
      "name": "symbol",
      "outputs": [
        {
          "internalType": "string",
          "name": "",
          "type": "string"
        }
      ],
      "stateMutability": "view",
      "type": "function",
      "constant": true
    },
    {
      "inputs": [
        {
          "internalType": "uint256",
          "name": "index",
          "type": "uint256"
        }
      ],
      "name": "tokenByIndex",
      "outputs": [
        {
          "internalType": "uint256",
          "name": "",
          "type": "uint256"
        }
      ],
      "stateMutability": "view",
      "type": "function",
      "constant": true
    },
    {
      "inputs": [
        {
          "internalType": "address",
          "name": "owner",
          "type": "address"
        },
        {
          "internalType": "uint256",
          "name": "index",
          "type": "uint256"
        }
      ],
      "name": "tokenOfOwnerByIndex",
      "outputs": [
        {
          "internalType": "uint256",
          "name": "",
          "type": "uint256"
        }
      ],
      "stateMutability": "view",
      "type": "function",
      "constant": true
    },
    {
      "inputs": [],
      "name": "totalSupply",
      "outputs": [
        {
          "internalType": "uint256",
          "name": "",
          "type": "uint256"
        }
      ],
      "stateMutability": "view",
      "type": "function",
      "constant": true
    },
    {
      "inputs": [
        {
          "internalType": "address",
          "name": "from",
          "type": "address"
        },
        {
          "internalType": "address",
          "name": "to",
          "type": "address"
        },
        {
          "internalType": "uint256",
          "name": "tokenId",
          "type": "uint256"
        }
      ],
      "name": "transferFrom",
      "outputs": [],
      "stateMutability": "nonpayable",
      "type": "function"
    },
    {
      "inputs": [
        {
          "internalType": "address",
          "name": "newOwner",
          "type": "address"
        }
      ],
      "name": "transferOwnership",
      "outputs": [],
      "stateMutability": "nonpayable",
      "type": "function"
    },
    {
      "inputs": [
        {
          "internalType": "address",
          "name": "addr",
          "type": "address"
        }
      ],
      "name": "setMarket",
      "outputs": [],
      "stateMutability": "nonpayable",
      "type": "function"
    },
    {
      "inputs": [
        {
          "internalType": "string",
          "name": "uri",
          "type": "string"
        }
      ],
      "name": "mintNFT",
      "outputs": [
        {
          "internalType": "uint256",
          "name": "",
          "type": "uint256"
        }
      ],
      "stateMutability": "nonpayable",
      "type": "function"
    },
    {
      "inputs": [
        {
          "internalType": "string",
          "name": "uri",
          "type": "string"
        },
        {
          "internalType": "address",
          "name": "owner",
          "type": "address"
        }
      ],
      "name": "mintNFTFor",
      "outputs": [
        {
          "internalType": "uint256",
          "name": "",
          "type": "uint256"
        }
      ],
      "stateMutability": "nonpayable",
      "type": "function"
    },
    {
      "inputs": [
        {
          "internalType": "bytes4",
          "name": "interfaceId",
          "type": "bytes4"
        }
      ],
      "name": "supportsInterface",
      "outputs": [
        {
          "internalType": "bool",
          "name": "",
          "type": "bool"
        }
      ],
      "stateMutability": "view",
      "type": "function",
      "constant": true
    },
    {
      "inputs": [
        {
          "internalType": "uint256",
          "name": "tokenId",
          "type": "uint256"
        }
      ],
      "name": "tokenURI",
      "outputs": [
        {
          "internalType": "string",
          "name": "",
          "type": "string"
        }
      ],
      "stateMutability": "view",
      "type": "function",
      "constant": true
    },
    {
      "inputs": [
        {
          "internalType": "address",
          "name": "owner",
          "type": "address"
        }
      ],
      "name": "tokensByOwner",
      "outputs": [
        {
          "internalType": "string",
          "name": "",
          "type": "string"
        }
      ],
      "stateMutability": "view",
      "type": "function",
      "constant": true
    },
    {
      "inputs": [
        {
          "internalType": "address",
          "name": "from",
          "type": "address"
        },
        {
          "internalType": "address",
          "name": "to",
          "type": "address"
        },
        {
          "internalType": "uint256",
          "name": "tokenId",
          "type": "uint256"
        }
      ],
      "name": "transferFromByOwner",
      "outputs": [],
      "stateMutability": "nonpayable",
      "type": "function"
    },
    {
      "inputs": [
        {
          "internalType": "uint256",
          "name": "_tokenId",
          "type": "uint256"
        }
      ],
      "name": "removeNFT",
      "outputs": [],
      "stateMutability": "nonpayable",
      "type": "function"
    },
    {
      "inputs": [
        {
          "internalType": "string[]",
          "name": "uri",
          "type": "string[]"
        },
        {
          "internalType": "uint256[]",
          "name": "quantity",
          "type": "uint256[]"
        }
      ],
      "name": "_mintBatch",
      "outputs": [],
      "stateMutability": "nonpayable",
      "type": "function"
    }
  ],
  "bytecode": "0x608060405273c8e5c27da7e238c114703b46bfd091582bc26d7f600d60006101000a81548173ffffffffffffffffffffffffffffffffffffffff021916908373ffffffffffffffffffffffffffffffffffffffff1602179055503480156200006657600080fd5b506040518060400160405280600881526020017f544553545f4e46540000000000000000000000000000000000000000000000008152506040518060400160405280600481526020017f544e4654000000000000000000000000000000000000000000000000000000008152508160009080519060200190620000eb9291906200020d565b508060019080519060200190620001049291906200020d565b50505062000139620001246200013f640100000000026401000000009004565b62000147640100000000026401000000009004565b62000322565b600033905090565b6000600b60009054906101000a900473ffffffffffffffffffffffffffffffffffffffff16905081600b60006101000a81548173ffffffffffffffffffffffffffffffffffffffff021916908373ffffffffffffffffffffffffffffffffffffffff1602179055508173ffffffffffffffffffffffffffffffffffffffff168173ffffffffffffffffffffffffffffffffffffffff167f8be0079c531659141344cd1fd0a4f28419497f9722a3daafe3b4186f6b6457e060405160405180910390a35050565b8280546200021b90620002bd565b90600052602060002090601f0160209004810192826200023f57600085556200028b565b82601f106200025a57805160ff19168380011785556200028b565b828001600101855582156200028b579182015b828111156200028a5782518255916020019190600101906200026d565b5b5090506200029a91906200029e565b5090565b5b80821115620002b95760008160009055506001016200029f565b5090565b60006002820490506001821680620002d657607f821691505b60208210811415620002ed57620002ec620002f3565b5b50919050565b7f4e487b7100000000000000000000000000000000000000000000000000000000600052602260045260246000fd5b613e2a80620003326000396000f3fe608060405234801561001057600080fd5b50600436106101ab576000357c01000000000000000000000000000000000000000000000000000000009004806370a08231116100fb578063b88d4fde116100b4578063e985e9c51161008e578063e985e9c5146104c2578063ee4739cb146104f2578063f2fde38b1461050e578063fb37e8831461052a576101ab565b8063b88d4fde1461045a578063c87b56dd14610476578063e5ae4946146104a6576101ab565b806370a0823114610398578063715018a6146103c85780638da5cb5b146103d257806395d89b41146103f05780639d6037ae1461040e578063a22cb4651461043e576101ab565b806318160ddd1161016857806342842e0e1161014257806342842e0e146103005780634f6ccce71461031c5780636352211e1461034c5780636dcea85f1461037c576101ab565b806318160ddd1461029657806323b872dd146102b45780632f745c59146102d0576101ab565b806301ffc9a7146101b057806306fdde03146101e0578063081812fc146101fe578063095ea7b31461022e5780630d381a281461024a5780630e664b421461027a575b600080fd5b6101ca60048036038101906101c59190612c7d565b61055a565b6040516101d791906136aa565b60405180910390f35b6101e861056c565b6040516101f591906136c5565b60405180910390f35b61021860048036038101906102139190612d64565b6105fe565b6040516102259190613643565b60405180910390f35b61024860048036038101906102439190612bd5565b610683565b005b610264600480360381019061025f9190612a6a565b61079b565b60405161027191906136c5565b60405180910390f35b610294600480360381019061028f9190612c11565b610840565b005b61029e61095d565b6040516102ab9190613967565b60405180910390f35b6102ce60048036038101906102c99190612acf565b61096a565b005b6102ea60048036038101906102e59190612bd5565b6109ca565b6040516102f79190613967565b60405180910390f35b61031a60048036038101906103159190612acf565b610a6f565b005b61033660048036038101906103319190612d64565b610a8f565b6040516103439190613967565b60405180910390f35b61036660048036038101906103619190612d64565b610b26565b6040516103739190613643565b60405180910390f35b61039660048036038101906103919190612a6a565b610bd8565b005b6103b260048036038101906103ad9190612a6a565b610c1c565b6040516103bf9190613967565b60405180910390f35b6103d0610cd4565b005b6103da610d5c565b6040516103e79190613643565b60405180910390f35b6103f8610d86565b60405161040591906136c5565b60405180910390f35b61042860048036038101906104239190612d10565b610e18565b6040516104359190613967565b60405180910390f35b61045860048036038101906104539190612b99565b610e7d565b005b610474600480360381019061046f9190612b1e565b610e93565b005b610490600480360381019061048b9190612d64565b610ef5565b60405161049d91906136c5565b60405180910390f35b6104c060048036038101906104bb9190612acf565b610f07565b005b6104dc60048036038101906104d79190612a93565b610f93565b6040516104e991906136aa565b60405180910390f35b61050c60048036038101906105079190612d64565b611027565b005b61052860048036038101906105239190612a6a565b6110aa565b005b610544600480360381019061053f9190612ccf565b6111a2565b6040516105519190613967565b60405180910390f35b60006105658261055a565b9050919050565b60606000805461057b90613c1f565b80601f01602080910402602001604051908101604052809291908181526020018280546105a790613c1f565b80156105f45780601f106105c9576101008083540402835291602001916105f4565b820191906000526020600020905b8154815290600101906020018083116105d757829003601f168201915b5050505050905090565b600061060982611206565b610648576040517f08c379a000000000000000000000000000000000000000000000000000000000815260040161063f90613887565b60405180910390fd5b6004600083815260200190815260200160002060009054906101000a900473ffffffffffffffffffffffffffffffffffffffff169050919050565b600061068e82610b26565b90508073ffffffffffffffffffffffffffffffffffffffff168373ffffffffffffffffffffffffffffffffffffffff1614156106ff576040517f08c379a00000000000000000000000000000000000000000000000000000000081526004016106f690613907565b60405180910390fd5b8073ffffffffffffffffffffffffffffffffffffffff1661071e611272565b73ffffffffffffffffffffffffffffffffffffffff16148061074d575061074c81610747611272565b610f93565b5b61078c576040517f08c379a0000000000000000000000000000000000000000000000000000000008152600401610783906137c7565b60405180910390fd5b610796838361127a565b505050565b606060006107a883610c1c565b9050606060005b8281101561083557816107ca6107c587846109ca565b611333565b6040516020016107db9291906135fd565b6040516020818303038152906040529150600181846107fa9190613b35565b1461082257816040516020016108109190613621565b60405160208183030381529060405291505b808061082d90613c51565b9150506107af565b508092505050919050565b60005b82518110156109585760005b828281518110610888577f4e487b7100000000000000000000000000000000000000000000000000000000600052603260045260246000fd5b6020026020010151811015610944576108a1600c6114ff565b60006108ad600c611515565b90506108b93382611523565b610903818685815181106108f6577f4e487b7100000000000000000000000000000000000000000000000000000000600052603260045260246000fd5b60200260200101516116f1565b610930600d60009054906101000a900473ffffffffffffffffffffffffffffffffffffffff166001610e7d565b50808061093c90613c51565b91505061084f565b50808061095090613c51565b915050610843565b505050565b6000600980549050905090565b61097b610975611272565b82611765565b6109ba576040517f08c379a00000000000000000000000000000000000000000000000000000000081526004016109b190613927565b60405180910390fd5b6109c5838383611843565b505050565b60006109d583610c1c565b8210610a16576040517f08c379a0000000000000000000000000000000000000000000000000000000008152600401610a0d906136e7565b60405180910390fd5b600760008473ffffffffffffffffffffffffffffffffffffffff1673ffffffffffffffffffffffffffffffffffffffff168152602001908152602001600020600083815260200190815260200160002054905092915050565b610a8a83838360405180602001604052806000815250610e93565b505050565b6000610a9961095d565b8210610ada576040517f08c379a0000000000000000000000000000000000000000000000000000000008152600401610ad190613947565b60405180910390fd5b60098281548110610b14577f4e487b7100000000000000000000000000000000000000000000000000000000600052603260045260246000fd5b90600052602060002001549050919050565b6000806002600084815260200190815260200160002060009054906101000a900473ffffffffffffffffffffffffffffffffffffffff169050600073ffffffffffffffffffffffffffffffffffffffff168173ffffffffffffffffffffffffffffffffffffffff161415610bcf576040517f08c379a0000000000000000000000000000000000000000000000000000000008152600401610bc690613807565b60405180910390fd5b80915050919050565b80600d60006101000a81548173ffffffffffffffffffffffffffffffffffffffff021916908373ffffffffffffffffffffffffffffffffffffffff16021790555050565b60008073ffffffffffffffffffffffffffffffffffffffff168273ffffffffffffffffffffffffffffffffffffffff161415610c8d576040517f08c379a0000000000000000000000000000000000000000000000000000000008152600401610c84906137e7565b60405180910390fd5b600360008373ffffffffffffffffffffffffffffffffffffffff1673ffffffffffffffffffffffffffffffffffffffff168152602001908152602001600020549050919050565b610cdc611272565b73ffffffffffffffffffffffffffffffffffffffff16610cfa610d5c565b73ffffffffffffffffffffffffffffffffffffffff1614610d50576040517f08c379a0000000000000000000000000000000000000000000000000000000008152600401610d47906138a7565b60405180910390fd5b610d5a6000611a9f565b565b6000600b60009054906101000a900473ffffffffffffffffffffffffffffffffffffffff16905090565b606060018054610d9590613c1f565b80601f0160208091040260200160405190810160405280929190818152602001828054610dc190613c1f565b8015610e0e5780601f10610de357610100808354040283529160200191610e0e565b820191906000526020600020905b815481529060010190602001808311610df157829003601f168201915b5050505050905090565b6000610e24600c6114ff565b6000610e30600c611515565b9050610e3c8382611523565b610e4681856116f1565b610e73600d60009054906101000a900473ffffffffffffffffffffffffffffffffffffffff166001610e7d565b8091505092915050565b610e8f610e88611272565b8383611b65565b5050565b610ea4610e9e611272565b83611765565b610ee3576040517f08c379a0000000000000000000000000000000000000000000000000000000008152600401610eda90613927565b60405180910390fd5b610eef84848484611cd2565b50505050565b6060610f0082611d2e565b9050919050565b610f0f611272565b73ffffffffffffffffffffffffffffffffffffffff16610f2d610d5c565b73ffffffffffffffffffffffffffffffffffffffff1614610f83576040517f08c379a0000000000000000000000000000000000000000000000000000000008152600401610f7a906138a7565b60405180910390fd5b610f8e838383611843565b505050565b6000600560008473ffffffffffffffffffffffffffffffffffffffff1673ffffffffffffffffffffffffffffffffffffffff16815260200190815260200160002060008373ffffffffffffffffffffffffffffffffffffffff1673ffffffffffffffffffffffffffffffffffffffff16815260200190815260200160002060009054906101000a900460ff16905092915050565b3373ffffffffffffffffffffffffffffffffffffffff1661104782610b26565b73ffffffffffffffffffffffffffffffffffffffff161461106757600080fd5b61107081611e80565b7fd83c63197e8e676d80ab0122beba9a9d20f3828839e9a1d6fe81d242e9cd7e6e8160405161109f9190613967565b60405180910390a150565b6110b2611272565b73ffffffffffffffffffffffffffffffffffffffff166110d0610d5c565b73ffffffffffffffffffffffffffffffffffffffff1614611126576040517f08c379a000000000000000000000000000000000000000000000000000000000815260040161111d906138a7565b60405180910390fd5b600073ffffffffffffffffffffffffffffffffffffffff168173ffffffffffffffffffffffffffffffffffffffff161415611196576040517f08c379a000000000000000000000000000000000000000000000000000000000815260040161118d90613727565b60405180910390fd5b61119f81611a9f565b50565b60006111ae600c6114ff565b60006111ba600c611515565b90506111c63382611523565b6111d081846116f1565b6111fd600d60009054906101000a900473ffffffffffffffffffffffffffffffffffffffff166001610e7d565b80915050919050565b60008073ffffffffffffffffffffffffffffffffffffffff166002600084815260200190815260200160002060009054906101000a900473ffffffffffffffffffffffffffffffffffffffff1673ffffffffffffffffffffffffffffffffffffffff1614159050919050565b600033905090565b816004600083815260200190815260200160002060006101000a81548173ffffffffffffffffffffffffffffffffffffffff021916908373ffffffffffffffffffffffffffffffffffffffff160217905550808273ffffffffffffffffffffffffffffffffffffffff166112ed83610b26565b73ffffffffffffffffffffffffffffffffffffffff167f8c5be1e5ebec7d5bd14f71427d1e84f3dd0314c0f7b2291e5b200ac8c7c3b92560405160405180910390a45050565b6060600082141561137b576040518060400160405280600181526020017f300000000000000000000000000000000000000000000000000000000000000081525090506114fa565b600082905060005b600082146113ad57808061139690613c51565b915050600a826113a69190613b04565b9150611383565b60008167ffffffffffffffff8111156113ef577f4e487b7100000000000000000000000000000000000000000000000000000000600052604160045260246000fd5b6040519080825280601f01601f1916602001820160405280156114215781602001600182028036833780820191505090505b5090505b600085146114f35760018261143a9190613b35565b9150600a856114499190613c9a565b60306114559190613aae565b7f0100000000000000000000000000000000000000000000000000000000000000028183815181106114b0577f4e487b7100000000000000000000000000000000000000000000000000000000600052603260045260246000fd5b60200101907effffffffffffffffffffffffffffffffffffffffffffffffffffffffffffff1916908160001a905350600a856114ec9190613b04565b9450611425565b8093505050505b919050565b6001816000016000828254019250508190555050565b600081600001549050919050565b600073ffffffffffffffffffffffffffffffffffffffff168273ffffffffffffffffffffffffffffffffffffffff161415611593576040517f08c379a000000000000000000000000000000000000000000000000000000000815260040161158a90613847565b60405180910390fd5b61159c81611206565b156115dc576040517f08c379a00000000000000000000000000000000000000000000000000000000081526004016115d390613747565b60405180910390fd5b6115e860008383611e8c565b6001600360008473ffffffffffffffffffffffffffffffffffffffff1673ffffffffffffffffffffffffffffffffffffffff16815260200190815260200160002060008282546116389190613aae565b92505081905550816002600083815260200190815260200160002060006101000a81548173ffffffffffffffffffffffffffffffffffffffff021916908373ffffffffffffffffffffffffffffffffffffffff160217905550808273ffffffffffffffffffffffffffffffffffffffff16600073ffffffffffffffffffffffffffffffffffffffff167fddf252ad1be2c89b69c2b068fc378daa952ba7f163c4a11628f55a4df523b3ef60405160405180910390a45050565b6116fa82611206565b611739576040517f08c379a000000000000000000000000000000000000000000000000000000000815260040161173090613827565b60405180910390fd5b80600660008481526020019081526020016000209080519060200190611760929190612731565b505050565b600061177082611206565b6117af576040517f08c379a00000000000000000000000000000000000000000000000000000000081526004016117a6906137a7565b60405180910390fd5b60006117ba83610b26565b90508073ffffffffffffffffffffffffffffffffffffffff168473ffffffffffffffffffffffffffffffffffffffff16148061182957508373ffffffffffffffffffffffffffffffffffffffff16611811846105fe565b73ffffffffffffffffffffffffffffffffffffffff16145b8061183a57506118398185610f93565b5b91505092915050565b8273ffffffffffffffffffffffffffffffffffffffff1661186382610b26565b73ffffffffffffffffffffffffffffffffffffffff16146118b9576040517f08c379a00000000000000000000000000000000000000000000000000000000081526004016118b0906138c7565b60405180910390fd5b600073ffffffffffffffffffffffffffffffffffffffff168273ffffffffffffffffffffffffffffffffffffffff161415611929576040517f08c379a000000000000000000000000000000000000000000000000000000000815260040161192090613767565b60405180910390fd5b611934838383611e8c565b61193f60008261127a565b6001600360008573ffffffffffffffffffffffffffffffffffffffff1673ffffffffffffffffffffffffffffffffffffffff168152602001908152602001600020600082825461198f9190613b35565b925050819055506001600360008473ffffffffffffffffffffffffffffffffffffffff1673ffffffffffffffffffffffffffffffffffffffff16815260200190815260200160002060008282546119e69190613aae565b92505081905550816002600083815260200190815260200160002060006101000a81548173ffffffffffffffffffffffffffffffffffffffff021916908373ffffffffffffffffffffffffffffffffffffffff160217905550808273ffffffffffffffffffffffffffffffffffffffff168473ffffffffffffffffffffffffffffffffffffffff167fddf252ad1be2c89b69c2b068fc378daa952ba7f163c4a11628f55a4df523b3ef60405160405180910390a4505050565b6000600b60009054906101000a900473ffffffffffffffffffffffffffffffffffffffff16905081600b60006101000a81548173ffffffffffffffffffffffffffffffffffffffff021916908373ffffffffffffffffffffffffffffffffffffffff1602179055508173ffffffffffffffffffffffffffffffffffffffff168173ffffffffffffffffffffffffffffffffffffffff167f8be0079c531659141344cd1fd0a4f28419497f9722a3daafe3b4186f6b6457e060405160405180910390a35050565b8173ffffffffffffffffffffffffffffffffffffffff168373ffffffffffffffffffffffffffffffffffffffff161415611bd4576040517f08c379a0000000000000000000000000000000000000000000000000000000008152600401611bcb90613787565b60405180910390fd5b80600560008573ffffffffffffffffffffffffffffffffffffffff1673ffffffffffffffffffffffffffffffffffffffff16815260200190815260200160002060008473ffffffffffffffffffffffffffffffffffffffff1673ffffffffffffffffffffffffffffffffffffffff16815260200190815260200160002060006101000a81548160ff0219169083151502179055508173ffffffffffffffffffffffffffffffffffffffff168373ffffffffffffffffffffffffffffffffffffffff167f17307eab39ab6107e8899845ad3d59bd9653f200f220920489ca2b5937696c3183604051611cc591906136aa565b60405180910390a3505050565b611cdd848484611843565b611ce984848484611e9c565b611d28576040517f08c379a0000000000000000000000000000000000000000000000000000000008152600401611d1f90613707565b60405180910390fd5b50505050565b6060611d3982611206565b611d78576040517f08c379a0000000000000000000000000000000000000000000000000000000008152600401611d6f90613867565b60405180910390fd5b6000600660008481526020019081526020016000208054611d9890613c1f565b80601f0160208091040260200160405190810160405280929190818152602001828054611dc490613c1f565b8015611e115780601f10611de657610100808354040283529160200191611e11565b820191906000526020600020905b815481529060010190602001808311611df457829003601f168201915b505050505090506000611e2261206b565b9050600081511415611e38578192505050611e7b565b600082511115611e6d578082604051602001611e559291906135fd565b60405160208183030381529060405292505050611e7b565b611e7684612082565b925050505b919050565b611e8981612129565b50565b611e9783838361217c565b505050565b6000611ebd8473ffffffffffffffffffffffffffffffffffffffff16612290565b1561205e578373ffffffffffffffffffffffffffffffffffffffff1663150b7a02611ee6611272565b8786866040518563ffffffff167c0100000000000000000000000000000000000000000000000000000000028152600401611f24949392919061365e565b602060405180830381600087803b158015611f3e57600080fd5b505af1925050508015611f6f57506040513d601f19601f82011682018060405250810190611f6c9190612ca6565b60015b611ff2573d8060008114611f9f576040519150601f19603f3d011682016040523d82523d6000602084013e611fa4565b606091505b50600081511415611fea576040517f08c379a0000000000000000000000000000000000000000000000000000000008152600401611fe190613707565b60405180910390fd5b805181602001fd5b63150b7a027c0100000000000000000000000000000000000000000000000000000000027bffffffffffffffffffffffffffffffffffffffffffffffffffffffff1916817bffffffffffffffffffffffffffffffffffffffffffffffffffffffff191614915050612063565b600190505b949350505050565b606060405180602001604052806000815250905090565b606061208d82611206565b6120cc576040517f08c379a00000000000000000000000000000000000000000000000000000000081526004016120c3906138e7565b60405180910390fd5b60006120d661206b565b905060008151116120f65760405180602001604052806000815250612121565b8061210084611333565b6040516020016121119291906135fd565b6040516020818303038152906040525b915050919050565b612132816122a3565b600060066000838152602001908152602001600020805461215290613c1f565b9050146121795760066000828152602001908152602001600020600061217891906127b7565b5b50565b6121878383836123b4565b600073ffffffffffffffffffffffffffffffffffffffff168373ffffffffffffffffffffffffffffffffffffffff1614156121ca576121c5816123b9565b612209565b8173ffffffffffffffffffffffffffffffffffffffff168373ffffffffffffffffffffffffffffffffffffffff1614612208576122078382612402565b5b5b600073ffffffffffffffffffffffffffffffffffffffff168273ffffffffffffffffffffffffffffffffffffffff16141561224c576122478161256f565b61228b565b8273ffffffffffffffffffffffffffffffffffffffff168273ffffffffffffffffffffffffffffffffffffffff161461228a5761228982826126b2565b5b5b505050565b600080823b905060008111915050919050565b60006122ae82610b26565b90506122bc81600084611e8c565b6122c760008361127a565b6001600360008373ffffffffffffffffffffffffffffffffffffffff1673ffffffffffffffffffffffffffffffffffffffff16815260200190815260200160002060008282546123179190613b35565b925050819055506002600083815260200190815260200160002060006101000a81549073ffffffffffffffffffffffffffffffffffffffff021916905581600073ffffffffffffffffffffffffffffffffffffffff168273ffffffffffffffffffffffffffffffffffffffff167fddf252ad1be2c89b69c2b068fc378daa952ba7f163c4a11628f55a4df523b3ef60405160405180910390a45050565b505050565b600980549050600a600083815260200190815260200160002081905550600981908060018154018082558091505060019003906000526020600020016000909190919091505550565b6000600161240f84610c1c565b6124199190613b35565b90506000600860008481526020019081526020016000205490508181146124fe576000600760008673ffffffffffffffffffffffffffffffffffffffff1673ffffffffffffffffffffffffffffffffffffffff168152602001908152602001600020600084815260200190815260200160002054905080600760008773ffffffffffffffffffffffffffffffffffffffff1673ffffffffffffffffffffffffffffffffffffffff168152602001908152602001600020600084815260200190815260200160002081905550816008600083815260200190815260200160002081905550505b6008600084815260200190815260200160002060009055600760008573ffffffffffffffffffffffffffffffffffffffff1673ffffffffffffffffffffffffffffffffffffffff16815260200190815260200160002060008381526020019081526020016000206000905550505050565b600060016009805490506125839190613b35565b90506000600a60008481526020019081526020016000205490506000600983815481106125d9577f4e487b7100000000000000000000000000000000000000000000000000000000600052603260045260246000fd5b906000526020600020015490508060098381548110612621577f4e487b7100000000000000000000000000000000000000000000000000000000600052603260045260246000fd5b906000526020600020018190555081600a600083815260200190815260200160002081905550600a6000858152602001908152602001600020600090556009805480612696577f4e487b7100000000000000000000000000000000000000000000000000000000600052603160045260246000fd5b6001900381819060005260206000200160009055905550505050565b60006126bd83610c1c565b905081600760008573ffffffffffffffffffffffffffffffffffffffff1673ffffffffffffffffffffffffffffffffffffffff168152602001908152602001600020600083815260200190815260200160002081905550806008600084815260200190815260200160002081905550505050565b82805461273d90613c1f565b90600052602060002090601f01602090048101928261275f57600085556127a6565b82601f1061277857805160ff19168380011785556127a6565b828001600101855582156127a6579182015b828111156127a557825182559160200191906001019061278a565b5b5090506127b391906127f7565b5090565b5080546127c390613c1f565b6000825580601f106127d557506127f4565b601f0160209004906000526020600020908101906127f391906127f7565b5b50565b5b808211156128105760008160009055506001016127f8565b5090565b6000612827612822846139b3565b613982565b9050808382526020820190508260005b85811015612867578135850161284d8882612a2b565b845260208401935060208301925050600181019050612837565b5050509392505050565b600061288461287f846139df565b613982565b905080838252602082019050828560208602820111156128a357600080fd5b60005b858110156128d357816128b98882612a55565b8452602084019350602083019250506001810190506128a6565b5050509392505050565b60006128f06128eb84613a0b565b613982565b90508281526020810184848401111561290857600080fd5b612913848285613bdd565b509392505050565b600061292e61292984613a3b565b613982565b90508281526020810184848401111561294657600080fd5b612951848285613bdd565b509392505050565b60008135905061296881613d98565b92915050565b600082601f83011261297f57600080fd5b813561298f848260208601612814565b91505092915050565b600082601f8301126129a957600080fd5b81356129b9848260208601612871565b91505092915050565b6000813590506129d181613daf565b92915050565b6000813590506129e681613dc6565b92915050565b6000815190506129fb81613dc6565b92915050565b600082601f830112612a1257600080fd5b8135612a228482602086016128dd565b91505092915050565b600082601f830112612a3c57600080fd5b8135612a4c84826020860161291b565b91505092915050565b600081359050612a6481613ddd565b92915050565b600060208284031215612a7c57600080fd5b6000612a8a84828501612959565b91505092915050565b60008060408385031215612aa657600080fd5b6000612ab485828601612959565b9250506020612ac585828601612959565b9150509250929050565b600080600060608486031215612ae457600080fd5b6000612af286828701612959565b9350506020612b0386828701612959565b9250506040612b1486828701612a55565b9150509250925092565b60008060008060808587031215612b3457600080fd5b6000612b4287828801612959565b9450506020612b5387828801612959565b9350506040612b6487828801612a55565b925050606085013567ffffffffffffffff811115612b8157600080fd5b612b8d87828801612a01565b91505092959194509250565b60008060408385031215612bac57600080fd5b6000612bba85828601612959565b9250506020612bcb858286016129c2565b9150509250929050565b60008060408385031215612be857600080fd5b6000612bf685828601612959565b9250506020612c0785828601612a55565b9150509250929050565b60008060408385031215612c2457600080fd5b600083013567ffffffffffffffff811115612c3e57600080fd5b612c4a8582860161296e565b925050602083013567ffffffffffffffff811115612c6757600080fd5b612c7385828601612998565b9150509250929050565b600060208284031215612c8f57600080fd5b6000612c9d848285016129d7565b91505092915050565b600060208284031215612cb857600080fd5b6000612cc6848285016129ec565b91505092915050565b600060208284031215612ce157600080fd5b600082013567ffffffffffffffff811115612cfb57600080fd5b612d0784828501612a2b565b91505092915050565b60008060408385031215612d2357600080fd5b600083013567ffffffffffffffff811115612d3d57600080fd5b612d4985828601612a2b565b9250506020612d5a85828601612959565b9150509250929050565b600060208284031215612d7657600080fd5b6000612d8484828501612a55565b91505092915050565b612d9681613b69565b82525050565b612da581613b7b565b82525050565b6000612db682613a6b565b612dc08185613a81565b9350612dd0818560208601613bec565b612dd981613d87565b840191505092915050565b6000612def82613a76565b612df98185613a92565b9350612e09818560208601613bec565b612e1281613d87565b840191505092915050565b6000612e2882613a76565b612e328185613aa3565b9350612e42818560208601613bec565b80840191505092915050565b6000612e5b602b83613a92565b91507f455243373231456e756d657261626c653a206f776e657220696e646578206f7560008301527f74206f6620626f756e64730000000000000000000000000000000000000000006020830152604082019050919050565b6000612ec1603283613a92565b91507f4552433732313a207472616e7366657220746f206e6f6e20455243373231526560008301527f63656976657220696d706c656d656e74657200000000000000000000000000006020830152604082019050919050565b6000612f27602683613a92565b91507f4f776e61626c653a206e6577206f776e657220697320746865207a65726f206160008301527f64647265737300000000000000000000000000000000000000000000000000006020830152604082019050919050565b6000612f8d601c83613a92565b91507f4552433732313a20746f6b656e20616c7265616479206d696e746564000000006000830152602082019050919050565b6000612fcd600183613aa3565b91507f2c000000000000000000000000000000000000000000000000000000000000006000830152600182019050919050565b600061300d602483613a92565b91507f4552433732313a207472616e7366657220746f20746865207a65726f2061646460008301527f72657373000000000000000000000000000000000000000000000000000000006020830152604082019050919050565b6000613073601983613a92565b91507f4552433732313a20617070726f766520746f2063616c6c6572000000000000006000830152602082019050919050565b60006130b3602c83613a92565b91507f4552433732313a206f70657261746f7220717565727920666f72206e6f6e657860008301527f697374656e7420746f6b656e00000000000000000000000000000000000000006020830152604082019050919050565b6000613119603883613a92565b91507f4552433732313a20617070726f76652063616c6c6572206973206e6f74206f7760008301527f6e6572206e6f7220617070726f76656420666f7220616c6c00000000000000006020830152604082019050919050565b600061317f602a83613a92565b91507f4552433732313a2062616c616e636520717565727920666f7220746865207a6560008301527f726f2061646472657373000000000000000000000000000000000000000000006020830152604082019050919050565b60006131e5602983613a92565b91507f4552433732313a206f776e657220717565727920666f72206e6f6e657869737460008301527f656e7420746f6b656e00000000000000000000000000000000000000000000006020830152604082019050919050565b600061324b602e83613a92565b91507f45524337323155524953746f726167653a2055524920736574206f66206e6f6e60008301527f6578697374656e7420746f6b656e0000000000000000000000000000000000006020830152604082019050919050565b60006132b1602083613a92565b91507f4552433732313a206d696e7420746f20746865207a65726f20616464726573736000830152602082019050919050565b60006132f1603183613a92565b91507f45524337323155524953746f726167653a2055524920717565727920666f722060008301527f6e6f6e6578697374656e7420746f6b656e0000000000000000000000000000006020830152604082019050919050565b6000613357602c83613a92565b91507f4552433732313a20617070726f76656420717565727920666f72206e6f6e657860008301527f697374656e7420746f6b656e00000000000000000000000000000000000000006020830152604082019050919050565b60006133bd602083613a92565b91507f4f776e61626c653a2063616c6c6572206973206e6f7420746865206f776e65726000830152602082019050919050565b60006133fd602983613a92565b91507f4552433732313a207472616e73666572206f6620746f6b656e2074686174206960008301527f73206e6f74206f776e00000000000000000000000000000000000000000000006020830152604082019050919050565b6000613463602f83613a92565b91507f4552433732314d657461646174613a2055524920717565727920666f72206e6f60008301527f6e6578697374656e7420746f6b656e00000000000000000000000000000000006020830152604082019050919050565b60006134c9602183613a92565b91507f4552433732313a20617070726f76616c20746f2063757272656e74206f776e6560008301527f72000000000000000000000000000000000000000000000000000000000000006020830152604082019050919050565b600061352f603183613a92565b91507f4552433732313a207472616e736665722063616c6c6572206973206e6f74206f60008301527f776e6572206e6f7220617070726f7665640000000000000000000000000000006020830152604082019050919050565b6000613595602c83613a92565b91507f455243373231456e756d657261626c653a20676c6f62616c20696e646578206f60008301527f7574206f6620626f756e647300000000000000000000000000000000000000006020830152604082019050919050565b6135f781613bd3565b82525050565b60006136098285612e1d565b91506136158284612e1d565b91508190509392505050565b600061362d8284612e1d565b915061363882612fc0565b915081905092915050565b60006020820190506136586000830184612d8d565b92915050565b60006080820190506136736000830187612d8d565b6136806020830186612d8d565b61368d60408301856135ee565b818103606083015261369f8184612dab565b905095945050505050565b60006020820190506136bf6000830184612d9c565b92915050565b600060208201905081810360008301526136df8184612de4565b905092915050565b6000602082019050818103600083015261370081612e4e565b9050919050565b6000602082019050818103600083015261372081612eb4565b9050919050565b6000602082019050818103600083015261374081612f1a565b9050919050565b6000602082019050818103600083015261376081612f80565b9050919050565b6000602082019050818103600083015261378081613000565b9050919050565b600060208201905081810360008301526137a081613066565b9050919050565b600060208201905081810360008301526137c0816130a6565b9050919050565b600060208201905081810360008301526137e08161310c565b9050919050565b6000602082019050818103600083015261380081613172565b9050919050565b60006020820190508181036000830152613820816131d8565b9050919050565b600060208201905081810360008301526138408161323e565b9050919050565b60006020820190508181036000830152613860816132a4565b9050919050565b60006020820190508181036000830152613880816132e4565b9050919050565b600060208201905081810360008301526138a08161334a565b9050919050565b600060208201905081810360008301526138c0816133b0565b9050919050565b600060208201905081810360008301526138e0816133f0565b9050919050565b6000602082019050818103600083015261390081613456565b9050919050565b60006020820190508181036000830152613920816134bc565b9050919050565b6000602082019050818103600083015261394081613522565b9050919050565b6000602082019050818103600083015261396081613588565b9050919050565b600060208201905061397c60008301846135ee565b92915050565b6000604051905081810181811067ffffffffffffffff821117156139a9576139a8613d58565b5b8060405250919050565b600067ffffffffffffffff8211156139ce576139cd613d58565b5b602082029050602081019050919050565b600067ffffffffffffffff8211156139fa576139f9613d58565b5b602082029050602081019050919050565b600067ffffffffffffffff821115613a2657613a25613d58565b5b601f19601f8301169050602081019050919050565b600067ffffffffffffffff821115613a5657613a55613d58565b5b601f19601f8301169050602081019050919050565b600081519050919050565b600081519050919050565b600082825260208201905092915050565b600082825260208201905092915050565b600081905092915050565b6000613ab982613bd3565b9150613ac483613bd3565b9250827fffffffffffffffffffffffffffffffffffffffffffffffffffffffffffffffff03821115613af957613af8613ccb565b5b828201905092915050565b6000613b0f82613bd3565b9150613b1a83613bd3565b925082613b2a57613b29613cfa565b5b828204905092915050565b6000613b4082613bd3565b9150613b4b83613bd3565b925082821015613b5e57613b5d613ccb565b5b828203905092915050565b6000613b7482613bb3565b9050919050565b60008115159050919050565b60007fffffffff0000000000000000000000000000000000000000000000000000000082169050919050565b600073ffffffffffffffffffffffffffffffffffffffff82169050919050565b6000819050919050565b82818337600083830152505050565b60005b83811015613c0a578082015181840152602081019050613bef565b83811115613c19576000848401525b50505050565b60006002820490506001821680613c3757607f821691505b60208210811415613c4b57613c4a613d29565b5b50919050565b6000613c5c82613bd3565b91507fffffffffffffffffffffffffffffffffffffffffffffffffffffffffffffffff821415613c8f57613c8e613ccb565b5b600182019050919050565b6000613ca582613bd3565b9150613cb083613bd3565b925082613cc057613cbf613cfa565b5b828206905092915050565b7f4e487b7100000000000000000000000000000000000000000000000000000000600052601160045260246000fd5b7f4e487b7100000000000000000000000000000000000000000000000000000000600052601260045260246000fd5b7f4e487b7100000000000000000000000000000000000000000000000000000000600052602260045260246000fd5b7f4e487b7100000000000000000000000000000000000000000000000000000000600052604160045260246000fd5b6000601f19601f8301169050919050565b613da181613b69565b8114613dac57600080fd5b50565b613db881613b7b565b8114613dc357600080fd5b50565b613dcf81613b87565b8114613dda57600080fd5b50565b613de681613bd3565b8114613df157600080fd5b5056fea26469706673582212200f35ca870dabda26534bf073b1a8b4f581589ee829daaf0bbdee6fe765f037f164736f6c63430008000033",
  "immutableReferences": {},
  "source": "\n// SPDX-License-Identifier: MIT\n\npragma solidity ^0.8.0;\n\nimport \"@openzeppelin/contracts/token/ERC721/ERC721.sol\";\nimport \"@openzeppelin/contracts/utils/Counters.sol\";\nimport \"@openzeppelin/contracts/access/Ownable.sol\";\nimport \"@openzeppelin/contracts/token/ERC721/extensions/ERC721URIStorage.sol\";\nimport \"@openzeppelin/contracts/token/ERC721/extensions/ERC721Enumerable.sol\";\nimport \"@openzeppelin/contracts/utils/Strings.sol\";\n\ncontract NFT is ERC721URIStorage, ERC721Enumerable, Ownable {\n    using Counters for Counters.Counter;\n    Counters.Counter private _tokenIds;\n    // address contractAddress;\n    address contractAddress = 0xC8E5c27Da7e238c114703B46bfd091582Bc26D7f;\n\n    constructor() ERC721(\"TEST_NFT\", \"TNFT\") {\n        // address addr = 0x764d67c50a620771915f71632090e697f4dd8cab;\n        // contractAddress = addr;\n    }\n    event Burned(uint256 nftID);\n\n    function setMarket(address addr) public {\n        contractAddress = addr;\n    }\n\n    function mintNFT(string memory uri)\n        public\n        returns (uint256)\n    {\n        _tokenIds.increment();\n        uint256 newItemId = _tokenIds.current();\n\n        _mint(msg.sender, newItemId);\n        _setTokenURI(newItemId, uri);\n        setApprovalForAll(contractAddress, true);\n        return newItemId;\n    }\n\n    function mintNFTFor(string memory uri, address owner)\n        public\n        returns (uint256)\n    {\n        _tokenIds.increment();\n        uint256 newItemId = _tokenIds.current();\n\n        _mint(owner, newItemId);\n        _setTokenURI(newItemId, uri);\n        setApprovalForAll(contractAddress, true);\n        return newItemId;\n    }\n\n    function supportsInterface(bytes4 interfaceId) public view override(ERC721Enumerable, ERC721) returns (bool) {\n        return supportsInterface(interfaceId);\n    }\n\n    function _beforeTokenTransfer(address from, address to, uint256 tokenId) internal virtual override(ERC721Enumerable, ERC721) {\n        super._beforeTokenTransfer(from, to, tokenId);\n    }\n\n    function _burn(uint256 tokenId) internal virtual override(ERC721URIStorage, ERC721) {\n        super._burn(tokenId);\n    }\n\n    function tokenURI(uint256 tokenId) public view virtual override(ERC721, ERC721URIStorage) returns (string memory) {\n        return super.tokenURI(tokenId);\n    }\n\n    function tokensByOwner(address owner) public view returns (string memory) {\n        uint256 balance = ERC721.balanceOf(owner);\n        string memory _tokens;\n\n        for(uint256 i = 0; i < balance; i++) {\n            _tokens = string(abi.encodePacked(_tokens, Strings.toString(super.tokenOfOwnerByIndex(owner, i))));\n            \n            if((balance - i) != 1)\n                _tokens = string(abi.encodePacked(_tokens, \",\"));\n        }\n        \n        return _tokens;\n    }\n    \n    function transferFromByOwner(address from, address to, uint256 tokenId) public onlyOwner {\n        ERC721._transfer(from, to, tokenId);\n    }\n\n    //burn nft\n    function removeNFT(uint256 _tokenId) public {\n        require(ownerOf(_tokenId) == msg.sender);\n            \n        _burn(_tokenId);\n        emit Burned(_tokenId);\n    }\n\n   function _mintBatch(\n        string[] memory uri,\n        uint256[] memory quantity\n    ) public {\n\n        for (uint256 i = 0; i < uri.length; i++) {\n            for (uint256 j = 0; j < quantity[i]; j++) {\n                _tokenIds.increment();\n                uint256 newItemId = _tokenIds.current();\n                _mint(msg.sender, newItemId);\n                _setTokenURI(newItemId, uri[i]);\n                setApprovalForAll(contractAddress, true);\n            }\n        }\n    }\n}\n",
  "sourcePath": "/home/keonlee/dev_home/nft-market-project/contracts/nft/token/NFT.sol",
  "compiler": {
    "name": "solc",
    "version": "0.8.0+commit.c7dfd78e.Emscripten.clang"
  },
  "schemaVersion": "3.3.4",
  "updatedAt": "2022-06-14T02:30:14.556Z",
  "networkType": "ethereum",
  "devdoc": {
    "kind": "dev",
    "methods": {
      "approve(address,uint256)": {
        "details": "See {IERC721-approve}."
      },
      "balanceOf(address)": {
        "details": "See {IERC721-balanceOf}."
      },
      "getApproved(uint256)": {
        "details": "See {IERC721-getApproved}."
      },
      "isApprovedForAll(address,address)": {
        "details": "See {IERC721-isApprovedForAll}."
      },
      "name()": {
        "details": "See {IERC721Metadata-name}."
      },
      "owner()": {
        "details": "Returns the address of the current owner."
      },
      "ownerOf(uint256)": {
        "details": "See {IERC721-ownerOf}."
      },
      "renounceOwnership()": {
        "details": "Leaves the contract without owner. It will not be possible to call `onlyOwner` functions anymore. Can only be called by the current owner. NOTE: Renouncing ownership will leave the contract without an owner, thereby removing any functionality that is only available to the owner."
      },
      "safeTransferFrom(address,address,uint256)": {
        "details": "See {IERC721-safeTransferFrom}."
      },
      "safeTransferFrom(address,address,uint256,bytes)": {
        "details": "See {IERC721-safeTransferFrom}."
      },
      "setApprovalForAll(address,bool)": {
        "details": "See {IERC721-setApprovalForAll}."
      },
      "symbol()": {
        "details": "See {IERC721Metadata-symbol}."
      },
      "tokenByIndex(uint256)": {
        "details": "See {IERC721Enumerable-tokenByIndex}."
      },
      "tokenOfOwnerByIndex(address,uint256)": {
        "details": "See {IERC721Enumerable-tokenOfOwnerByIndex}."
      },
      "totalSupply()": {
        "details": "See {IERC721Enumerable-totalSupply}."
      },
      "transferFrom(address,address,uint256)": {
        "details": "See {IERC721-transferFrom}."
      },
      "transferOwnership(address)": {
        "details": "Transfers ownership of the contract to a new account (`newOwner`). Can only be called by the current owner."
      }
    },
    "version": 1
  },
  "userdoc": {
    "kind": "user",
    "methods": {},
    "version": 1
  }
}